{
  "_format": "hh-sol-artifact-1",
  "contractName": "LendingPool",
  "sourceName": "contracts/LendingPool.sol",
  "abi": [
    {
      "inputs": [
        {
          "internalType": "address",
          "name": "_veltToken",
          "type": "address"
        }
      ],
      "stateMutability": "nonpayable",
      "type": "constructor"
    },
    {
      "inputs": [],
      "name": "ReentrancyGuardReentrantCall",
      "type": "error"
    },
    {
      "anonymous": false,
      "inputs": [
        {
          "indexed": true,
          "internalType": "address",
          "name": "user",
          "type": "address"
        },
        {
          "indexed": false,
          "internalType": "uint256",
          "name": "amount",
          "type": "uint256"
        },
        {
          "indexed": false,
          "internalType": "uint256",
          "name": "time",
          "type": "uint256"
        }
      ],
      "name": "Deposit",
      "type": "event"
    },
    {
      "anonymous": false,
      "inputs": [
        {
          "indexed": true,
          "internalType": "address",
          "name": "user",
          "type": "address"
        },
        {
          "indexed": false,
          "internalType": "uint256",
          "name": "amount",
          "type": "uint256"
        },
        {
          "indexed": false,
          "internalType": "uint256",
          "name": "time",
          "type": "uint256"
        }
      ],
      "name": "Withdrawal",
      "type": "event"
    },
    {
      "inputs": [
        {
          "internalType": "address",
          "name": "_onBehalfOf",
          "type": "address"
        }
      ],
      "name": "deposit",
      "outputs": [],
      "stateMutability": "payable",
      "type": "function"
    },
    {
      "inputs": [
        {
          "internalType": "address",
          "name": "",
          "type": "address"
        }
      ],
      "name": "userDeposits",
      "outputs": [
        {
          "internalType": "uint256",
          "name": "amount",
          "type": "uint256"
        }
      ],
      "stateMutability": "view",
      "type": "function"
    },
    {
      "inputs": [],
      "name": "veltToken",
      "outputs": [
        {
          "internalType": "contract IVelt",
          "name": "",
          "type": "address"
        }
      ],
      "stateMutability": "view",
      "type": "function"
    },
    {
      "inputs": [
        {
          "internalType": "uint256",
          "name": "_amount",
          "type": "uint256"
        }
      ],
      "name": "withdraw",
      "outputs": [],
      "stateMutability": "nonpayable",
      "type": "function"
    }
  ],
  "bytecode": "0x608060405234801561001057600080fd5b50604051610ae3380380610ae3833981810160405281019061003291906100e4565b600160008190555080600160006101000a81548173ffffffffffffffffffffffffffffffffffffffff021916908373ffffffffffffffffffffffffffffffffffffffff16021790555050610111565b600080fd5b600073ffffffffffffffffffffffffffffffffffffffff82169050919050565b60006100b182610086565b9050919050565b6100c1816100a6565b81146100cc57600080fd5b50565b6000815190506100de816100b8565b92915050565b6000602082840312156100fa576100f9610081565b5b6000610108848285016100cf565b91505092915050565b6109c3806101206000396000f3fe60806040526004361061003f5760003560e01c80630ba36dcd146100445780632e1a7d4d14610081578063da04b0a0146100aa578063f340fa01146100d5575b600080fd5b34801561005057600080fd5b5061006b600480360381019061006691906105c0565b6100f1565b6040516100789190610606565b60405180910390f35b34801561008d57600080fd5b506100a860048036038101906100a3919061064d565b61010f565b005b3480156100b657600080fd5b506100bf610369565b6040516100cc91906106d9565b60405180910390f35b6100ef60048036038101906100ea91906105c0565b61038f565b005b60026020528060005260406000206000915090508060000154905081565b61011761050d565b6000811161015a576040517f08c379a000000000000000000000000000000000000000000000000000000000815260040161015190610777565b60405180910390fd5b80600260003373ffffffffffffffffffffffffffffffffffffffff1673ffffffffffffffffffffffffffffffffffffffff1681526020019081526020016000206000015410156101df576040517f08c379a00000000000000000000000000000000000000000000000000000000081526004016101d6906107e3565b60405180910390fd5b600160009054906101000a900473ffffffffffffffffffffffffffffffffffffffff1673ffffffffffffffffffffffffffffffffffffffff16639dc29fac33836040518363ffffffff1660e01b815260040161023c929190610812565b600060405180830381600087803b15801561025657600080fd5b505af115801561026a573d6000803e3d6000fd5b5050505080600260003373ffffffffffffffffffffffffffffffffffffffff1673ffffffffffffffffffffffffffffffffffffffff16815260200190815260200160002060000160008282546102c0919061086a565b925050819055503373ffffffffffffffffffffffffffffffffffffffff166108fc829081150290604051600060405180830381858888f1935050505015801561030d573d6000803e3d6000fd5b503373ffffffffffffffffffffffffffffffffffffffff167fdf273cb619d95419a9cd0ec88123a0538c85064229baa6363788f743fff90deb824260405161035692919061089e565b60405180910390a2610366610553565b50565b600160009054906101000a900473ffffffffffffffffffffffffffffffffffffffff1681565b600034116103d2576040517f08c379a00000000000000000000000000000000000000000000000000000000081526004016103c990610939565b60405180910390fd5b34600260008373ffffffffffffffffffffffffffffffffffffffff1673ffffffffffffffffffffffffffffffffffffffff16815260200190815260200160002060000160008282546104249190610959565b92505081905550600160009054906101000a900473ffffffffffffffffffffffffffffffffffffffff1673ffffffffffffffffffffffffffffffffffffffff166340c10f1982346040518363ffffffff1660e01b8152600401610488929190610812565b600060405180830381600087803b1580156104a257600080fd5b505af11580156104b6573d6000803e3d6000fd5b505050508073ffffffffffffffffffffffffffffffffffffffff167f90890809c654f11d6e72a28fa60149770a0d11ec6c92319d6ceb2bb0a4ea1a15344260405161050292919061089e565b60405180910390a250565b600260005403610549576040517f3ee5aeb500000000000000000000000000000000000000000000000000000000815260040160405180910390fd5b6002600081905550565b6001600081905550565b600080fd5b600073ffffffffffffffffffffffffffffffffffffffff82169050919050565b600061058d82610562565b9050919050565b61059d81610582565b81146105a857600080fd5b50565b6000813590506105ba81610594565b92915050565b6000602082840312156105d6576105d561055d565b5b60006105e4848285016105ab565b91505092915050565b6000819050919050565b610600816105ed565b82525050565b600060208201905061061b60008301846105f7565b92915050565b61062a816105ed565b811461063557600080fd5b50565b60008135905061064781610621565b92915050565b6000602082840312156106635761066261055d565b5b600061067184828501610638565b91505092915050565b6000819050919050565b600061069f61069a61069584610562565b61067a565b610562565b9050919050565b60006106b182610684565b9050919050565b60006106c3826106a6565b9050919050565b6106d3816106b8565b82525050565b60006020820190506106ee60008301846106ca565b92915050565b600082825260208201905092915050565b7f576974686472617720616d6f756e74206d75737420626520677265617465722060008201527f7468616e207a65726f0000000000000000000000000000000000000000000000602082015250565b60006107616029836106f4565b915061076c82610705565b604082019050919050565b6000602082019050818103600083015261079081610754565b9050919050565b7f496e73756666696369656e742062616c616e6365000000000000000000000000600082015250565b60006107cd6014836106f4565b91506107d882610797565b602082019050919050565b600060208201905081810360008301526107fc816107c0565b9050919050565b61080c81610582565b82525050565b60006040820190506108276000830185610803565b61083460208301846105f7565b9392505050565b7f4e487b7100000000000000000000000000000000000000000000000000000000600052601160045260246000fd5b6000610875826105ed565b9150610880836105ed565b92508282039050818111156108985761089761083b565b5b92915050565b60006040820190506108b360008301856105f7565b6108c060208301846105f7565b9392505050565b7f4465706f73697420616d6f756e74206d7573742062652067726561746572207460008201527f68616e207a65726f000000000000000000000000000000000000000000000000602082015250565b60006109236028836106f4565b915061092e826108c7565b604082019050919050565b6000602082019050818103600083015261095281610916565b9050919050565b6000610964826105ed565b915061096f836105ed565b92508282019050808211156109875761098661083b565b5b9291505056fea2646970667358221220ed23491c84d8fb327a61caca1659466378d2676d72c7bd4cfeb63f12fa7b226464736f6c63430008170033",
  "linkReferences": {},
  "deployedLinkReferences": {}
}