{
  "_format": "hh-sol-artifact-1",
  "contractName": "VeltToken",
  "sourceName": "contracts/tokens/VeltToken.sol",
  "abi": [
    {
      "inputs": [
        {
          "internalType": "address",
          "name": "recipient",
          "type": "address"
        },
        {
          "internalType": "address",
          "name": "initialOwner",
          "type": "address"
        }
      ],
      "stateMutability": "nonpayable",
      "type": "constructor"
    },
    {
      "inputs": [],
      "name": "ECDSAInvalidSignature",
      "type": "error"
    },
    {
      "inputs": [
        {
          "internalType": "uint256",
          "name": "length",
          "type": "uint256"
        }
      ],
      "name": "ECDSAInvalidSignatureLength",
      "type": "error"
    },
    {
      "inputs": [
        {
          "internalType": "bytes32",
          "name": "s",
          "type": "bytes32"
        }
      ],
      "name": "ECDSAInvalidSignatureS",
      "type": "error"
    },
    {
      "inputs": [
        {
          "internalType": "address",
          "name": "spender",
          "type": "address"
        },
        {
          "internalType": "uint256",
          "name": "allowance",
          "type": "uint256"
        },
        {
          "internalType": "uint256",
          "name": "needed",
          "type": "uint256"
        }
      ],
      "name": "ERC20InsufficientAllowance",
      "type": "error"
    },
    {
      "inputs": [
        {
          "internalType": "address",
          "name": "sender",
          "type": "address"
        },
        {
          "internalType": "uint256",
          "name": "balance",
          "type": "uint256"
        },
        {
          "internalType": "uint256",
          "name": "needed",
          "type": "uint256"
        }
      ],
      "name": "ERC20InsufficientBalance",
      "type": "error"
    },
    {
      "inputs": [
        {
          "internalType": "address",
          "name": "approver",
          "type": "address"
        }
      ],
      "name": "ERC20InvalidApprover",
      "type": "error"
    },
    {
      "inputs": [
        {
          "internalType": "address",
          "name": "receiver",
          "type": "address"
        }
      ],
      "name": "ERC20InvalidReceiver",
      "type": "error"
    },
    {
      "inputs": [
        {
          "internalType": "address",
          "name": "sender",
          "type": "address"
        }
      ],
      "name": "ERC20InvalidSender",
      "type": "error"
    },
    {
      "inputs": [
        {
          "internalType": "address",
          "name": "spender",
          "type": "address"
        }
      ],
      "name": "ERC20InvalidSpender",
      "type": "error"
    },
    {
      "inputs": [
        {
          "internalType": "uint256",
          "name": "deadline",
          "type": "uint256"
        }
      ],
      "name": "ERC2612ExpiredSignature",
      "type": "error"
    },
    {
      "inputs": [
        {
          "internalType": "address",
          "name": "signer",
          "type": "address"
        },
        {
          "internalType": "address",
          "name": "owner",
          "type": "address"
        }
      ],
      "name": "ERC2612InvalidSigner",
      "type": "error"
    },
    {
      "inputs": [
        {
          "internalType": "address",
          "name": "account",
          "type": "address"
        },
        {
          "internalType": "uint256",
          "name": "currentNonce",
          "type": "uint256"
        }
      ],
      "name": "InvalidAccountNonce",
      "type": "error"
    },
    {
      "inputs": [],
      "name": "InvalidShortString",
      "type": "error"
    },
    {
      "inputs": [
        {
          "internalType": "address",
          "name": "owner",
          "type": "address"
        }
      ],
      "name": "OwnableInvalidOwner",
      "type": "error"
    },
    {
      "inputs": [
        {
          "internalType": "address",
          "name": "account",
          "type": "address"
        }
      ],
      "name": "OwnableUnauthorizedAccount",
      "type": "error"
    },
    {
      "inputs": [
        {
          "internalType": "string",
          "name": "str",
          "type": "string"
        }
      ],
      "name": "StringTooLong",
      "type": "error"
    },
    {
      "anonymous": false,
      "inputs": [
        {
          "indexed": true,
          "internalType": "address",
          "name": "owner",
          "type": "address"
        },
        {
          "indexed": true,
          "internalType": "address",
          "name": "spender",
          "type": "address"
        },
        {
          "indexed": false,
          "internalType": "uint256",
          "name": "value",
          "type": "uint256"
        }
      ],
      "name": "Approval",
      "type": "event"
    },
    {
      "anonymous": false,
      "inputs": [],
      "name": "EIP712DomainChanged",
      "type": "event"
    },
    {
      "anonymous": false,
      "inputs": [
        {
          "indexed": true,
          "internalType": "address",
          "name": "previousOwner",
          "type": "address"
        },
        {
          "indexed": true,
          "internalType": "address",
          "name": "newOwner",
          "type": "address"
        }
      ],
      "name": "OwnershipTransferred",
      "type": "event"
    },
    {
      "anonymous": false,
      "inputs": [
        {
          "indexed": true,
          "internalType": "address",
          "name": "from",
          "type": "address"
        },
        {
          "indexed": true,
          "internalType": "address",
          "name": "to",
          "type": "address"
        },
        {
          "indexed": false,
          "internalType": "uint256",
          "name": "value",
          "type": "uint256"
        }
      ],
      "name": "Transfer",
      "type": "event"
    },
    {
      "inputs": [],
      "name": "DOMAIN_SEPARATOR",
      "outputs": [
        {
          "internalType": "bytes32",
          "name": "",
          "type": "bytes32"
        }
      ],
      "stateMutability": "view",
      "type": "function"
    },
    {
      "inputs": [
        {
          "internalType": "address",
          "name": "owner",
          "type": "address"
        },
        {
          "internalType": "address",
          "name": "spender",
          "type": "address"
        }
      ],
      "name": "allowance",
      "outputs": [
        {
          "internalType": "uint256",
          "name": "",
          "type": "uint256"
        }
      ],
      "stateMutability": "view",
      "type": "function"
    },
    {
      "inputs": [
        {
          "internalType": "address",
          "name": "spender",
          "type": "address"
        },
        {
          "internalType": "uint256",
          "name": "value",
          "type": "uint256"
        }
      ],
      "name": "approve",
      "outputs": [
        {
          "internalType": "bool",
          "name": "",
          "type": "bool"
        }
      ],
      "stateMutability": "nonpayable",
      "type": "function"
    },
    {
      "inputs": [
        {
          "internalType": "address",
          "name": "account",
          "type": "address"
        }
      ],
      "name": "balanceOf",
      "outputs": [
        {
          "internalType": "uint256",
          "name": "",
          "type": "uint256"
        }
      ],
      "stateMutability": "view",
      "type": "function"
    },
    {
      "inputs": [
        {
          "internalType": "uint256",
          "name": "value",
          "type": "uint256"
        }
      ],
      "name": "burn",
      "outputs": [],
      "stateMutability": "nonpayable",
      "type": "function"
    },
    {
      "inputs": [
        {
          "internalType": "address",
          "name": "from",
          "type": "address"
        },
        {
          "internalType": "uint256",
          "name": "amount",
          "type": "uint256"
        }
      ],
      "name": "burn",
      "outputs": [],
      "stateMutability": "nonpayable",
      "type": "function"
    },
    {
      "inputs": [
        {
          "internalType": "address",
          "name": "account",
          "type": "address"
        },
        {
          "internalType": "uint256",
          "name": "value",
          "type": "uint256"
        }
      ],
      "name": "burnFrom",
      "outputs": [],
      "stateMutability": "nonpayable",
      "type": "function"
    },
    {
      "inputs": [],
      "name": "decimals",
      "outputs": [
        {
          "internalType": "uint8",
          "name": "",
          "type": "uint8"
        }
      ],
      "stateMutability": "view",
      "type": "function"
    },
    {
      "inputs": [],
      "name": "eip712Domain",
      "outputs": [
        {
          "internalType": "bytes1",
          "name": "fields",
          "type": "bytes1"
        },
        {
          "internalType": "string",
          "name": "name",
          "type": "string"
        },
        {
          "internalType": "string",
          "name": "version",
          "type": "string"
        },
        {
          "internalType": "uint256",
          "name": "chainId",
          "type": "uint256"
        },
        {
          "internalType": "address",
          "name": "verifyingContract",
          "type": "address"
        },
        {
          "internalType": "bytes32",
          "name": "salt",
          "type": "bytes32"
        },
        {
          "internalType": "uint256[]",
          "name": "extensions",
          "type": "uint256[]"
        }
      ],
      "stateMutability": "view",
      "type": "function"
    },
    {
      "inputs": [],
      "name": "lendingPool",
      "outputs": [
        {
          "internalType": "address",
          "name": "",
          "type": "address"
        }
      ],
      "stateMutability": "view",
      "type": "function"
    },
    {
      "inputs": [
        {
          "internalType": "address",
          "name": "to",
          "type": "address"
        },
        {
          "internalType": "uint256",
          "name": "amount",
          "type": "uint256"
        }
      ],
      "name": "mint",
      "outputs": [],
      "stateMutability": "nonpayable",
      "type": "function"
    },
    {
      "inputs": [],
      "name": "name",
      "outputs": [
        {
          "internalType": "string",
          "name": "",
          "type": "string"
        }
      ],
      "stateMutability": "view",
      "type": "function"
    },
    {
      "inputs": [
        {
          "internalType": "address",
          "name": "owner",
          "type": "address"
        }
      ],
      "name": "nonces",
      "outputs": [
        {
          "internalType": "uint256",
          "name": "",
          "type": "uint256"
        }
      ],
      "stateMutability": "view",
      "type": "function"
    },
    {
      "inputs": [],
      "name": "owner",
      "outputs": [
        {
          "internalType": "address",
          "name": "",
          "type": "address"
        }
      ],
      "stateMutability": "view",
      "type": "function"
    },
    {
      "inputs": [
        {
          "internalType": "address",
          "name": "owner",
          "type": "address"
        },
        {
          "internalType": "address",
          "name": "spender",
          "type": "address"
        },
        {
          "internalType": "uint256",
          "name": "value",
          "type": "uint256"
        },
        {
          "internalType": "uint256",
          "name": "deadline",
          "type": "uint256"
        },
        {
          "internalType": "uint8",
          "name": "v",
          "type": "uint8"
        },
        {
          "internalType": "bytes32",
          "name": "r",
          "type": "bytes32"
        },
        {
          "internalType": "bytes32",
          "name": "s",
          "type": "bytes32"
        }
      ],
      "name": "permit",
      "outputs": [],
      "stateMutability": "nonpayable",
      "type": "function"
    },
    {
      "inputs": [],
      "name": "renounceOwnership",
      "outputs": [],
      "stateMutability": "nonpayable",
      "type": "function"
    },
    {
      "inputs": [
        {
          "internalType": "address",
          "name": "_lendingPool",
          "type": "address"
        }
      ],
      "name": "setLendingPool",
      "outputs": [],
      "stateMutability": "nonpayable",
      "type": "function"
    },
    {
      "inputs": [],
      "name": "symbol",
      "outputs": [
        {
          "internalType": "string",
          "name": "",
          "type": "string"
        }
      ],
      "stateMutability": "view",
      "type": "function"
    },
    {
      "inputs": [],
      "name": "totalSupply",
      "outputs": [
        {
          "internalType": "uint256",
          "name": "",
          "type": "uint256"
        }
      ],
      "stateMutability": "view",
      "type": "function"
    },
    {
      "inputs": [
        {
          "internalType": "address",
          "name": "to",
          "type": "address"
        },
        {
          "internalType": "uint256",
          "name": "value",
          "type": "uint256"
        }
      ],
      "name": "transfer",
      "outputs": [
        {
          "internalType": "bool",
          "name": "",
          "type": "bool"
        }
      ],
      "stateMutability": "nonpayable",
      "type": "function"
    },
    {
      "inputs": [
        {
          "internalType": "address",
          "name": "from",
          "type": "address"
        },
        {
          "internalType": "address",
          "name": "to",
          "type": "address"
        },
        {
          "internalType": "uint256",
          "name": "value",
          "type": "uint256"
        }
      ],
      "name": "transferFrom",
      "outputs": [
        {
          "internalType": "bool",
          "name": "",
          "type": "bool"
        }
      ],
      "stateMutability": "nonpayable",
      "type": "function"
    },
    {
      "inputs": [
        {
          "internalType": "address",
          "name": "newOwner",
          "type": "address"
        }
      ],
      "name": "transferOwnership",
      "outputs": [],
      "stateMutability": "nonpayable",
      "type": "function"
    }
  ],
  "bytecode": "0x6101606040523480156200001257600080fd5b50604051620033b4380380620033b48339818101604052810190620000389190620007db565b6040518060400160405280600981526020017f56656c74546f6b656e0000000000000000000000000000000000000000000000815250806040518060400160405280600181526020017f3100000000000000000000000000000000000000000000000000000000000000815250836040518060400160405280600a81526020017f56656c7420546f6b656e000000000000000000000000000000000000000000008152506040518060400160405280600481526020017f56454c5400000000000000000000000000000000000000000000000000000000815250816003908162000123919062000a9c565b50806004908162000135919062000a9c565b505050600073ffffffffffffffffffffffffffffffffffffffff168173ffffffffffffffffffffffffffffffffffffffff1603620001ad5760006040517f1e4fbdf7000000000000000000000000000000000000000000000000000000008152600401620001a4919062000b94565b60405180910390fd5b620001be81620002b960201b60201c565b50620001d56006836200037f60201b90919060201c565b6101208181525050620001f36007826200037f60201b90919060201c565b6101408181525050818051906020012060e08181525050808051906020012061010081815250504660a0818152505062000232620003d760201b60201c565b608081815250503073ffffffffffffffffffffffffffffffffffffffff1660c08173ffffffffffffffffffffffffffffffffffffffff1681525050505050620002b182620002856200043460201b60201c565b600a62000293919062000d41565b64e8d4a51000620002a5919062000d92565b6200043d60201b60201c565b505062001050565b6000600560009054906101000a900473ffffffffffffffffffffffffffffffffffffffff16905081600560006101000a81548173ffffffffffffffffffffffffffffffffffffffff021916908373ffffffffffffffffffffffffffffffffffffffff1602179055508173ffffffffffffffffffffffffffffffffffffffff168173ffffffffffffffffffffffffffffffffffffffff167f8be0079c531659141344cd1fd0a4f28419497f9722a3daafe3b4186f6b6457e060405160405180910390a35050565b6000602083511015620003a5576200039d83620004ca60201b60201c565b9050620003d1565b82620003b7836200053760201b60201c565b6000019081620003c8919062000a9c565b5060ff60001b90505b92915050565b60007f8b73c3c69bb8fe3d512ecc4cf759cc79239f7b179b0ffacaa9a75d522b39400f60e0516101005146306040516020016200041995949392919062000e09565b60405160208183030381529060405280519060200120905090565b60006012905090565b600073ffffffffffffffffffffffffffffffffffffffff168273ffffffffffffffffffffffffffffffffffffffff1603620004b25760006040517fec442f05000000000000000000000000000000000000000000000000000000008152600401620004a9919062000b94565b60405180910390fd5b620004c6600083836200054160201b60201c565b5050565b600080829050601f815111156200051a57826040517f305a27a900000000000000000000000000000000000000000000000000000000815260040162000511919062000ef5565b60405180910390fd5b805181620005289062000f4b565b60001c1760001b915050919050565b6000819050919050565b600073ffffffffffffffffffffffffffffffffffffffff168373ffffffffffffffffffffffffffffffffffffffff1603620005975780600260008282546200058a919062000fbb565b925050819055506200066d565b60008060008573ffffffffffffffffffffffffffffffffffffffff1673ffffffffffffffffffffffffffffffffffffffff1681526020019081526020016000205490508181101562000626578381836040517fe450d38c0000000000000000000000000000000000000000000000000000000081526004016200061d9392919062000ff6565b60405180910390fd5b8181036000808673ffffffffffffffffffffffffffffffffffffffff1673ffffffffffffffffffffffffffffffffffffffff16815260200190815260200160002081905550505b600073ffffffffffffffffffffffffffffffffffffffff168273ffffffffffffffffffffffffffffffffffffffff1603620006b8578060026000828254039250508190555062000705565b806000808473ffffffffffffffffffffffffffffffffffffffff1673ffffffffffffffffffffffffffffffffffffffff168152602001908152602001600020600082825401925050819055505b8173ffffffffffffffffffffffffffffffffffffffff168373ffffffffffffffffffffffffffffffffffffffff167fddf252ad1be2c89b69c2b068fc378daa952ba7f163c4a11628f55a4df523b3ef8360405162000764919062001033565b60405180910390a3505050565b600080fd5b600073ffffffffffffffffffffffffffffffffffffffff82169050919050565b6000620007a38262000776565b9050919050565b620007b58162000796565b8114620007c157600080fd5b50565b600081519050620007d581620007aa565b92915050565b60008060408385031215620007f557620007f462000771565b5b60006200080585828601620007c4565b92505060206200081885828601620007c4565b9150509250929050565b600081519050919050565b7f4e487b7100000000000000000000000000000000000000000000000000000000600052604160045260246000fd5b7f4e487b7100000000000000000000000000000000000000000000000000000000600052602260045260246000fd5b60006002820490506001821680620008a457607f821691505b602082108103620008ba57620008b96200085c565b5b50919050565b60008190508160005260206000209050919050565b60006020601f8301049050919050565b600082821b905092915050565b600060088302620009247fffffffffffffffffffffffffffffffffffffffffffffffffffffffffffffffff82620008e5565b620009308683620008e5565b95508019841693508086168417925050509392505050565b6000819050919050565b6000819050919050565b60006200097d62000977620009718462000948565b62000952565b62000948565b9050919050565b6000819050919050565b62000999836200095c565b620009b1620009a88262000984565b848454620008f2565b825550505050565b600090565b620009c8620009b9565b620009d58184846200098e565b505050565b5b81811015620009fd57620009f1600082620009be565b600181019050620009db565b5050565b601f82111562000a4c5762000a1681620008c0565b62000a2184620008d5565b8101602085101562000a31578190505b62000a4962000a4085620008d5565b830182620009da565b50505b505050565b600082821c905092915050565b600062000a716000198460080262000a51565b1980831691505092915050565b600062000a8c838362000a5e565b9150826002028217905092915050565b62000aa78262000822565b67ffffffffffffffff81111562000ac35762000ac26200082d565b5b62000acf82546200088b565b62000adc82828562000a01565b600060209050601f83116001811462000b14576000841562000aff578287015190505b62000b0b858262000a7e565b86555062000b7b565b601f19841662000b2486620008c0565b60005b8281101562000b4e5784890151825560018201915060208501945060208101905062000b27565b8683101562000b6e578489015162000b6a601f89168262000a5e565b8355505b6001600288020188555050505b505050505050565b62000b8e8162000796565b82525050565b600060208201905062000bab600083018462000b83565b92915050565b7f4e487b7100000000000000000000000000000000000000000000000000000000600052601160045260246000fd5b60008160011c9050919050565b6000808291508390505b600185111562000c3f5780860481111562000c175762000c1662000bb1565b5b600185161562000c275780820291505b808102905062000c378562000be0565b945062000bf7565b94509492505050565b60008262000c5a576001905062000d2d565b8162000c6a576000905062000d2d565b816001811462000c83576002811462000c8e5762000cc4565b600191505062000d2d565b60ff84111562000ca35762000ca262000bb1565b5b8360020a91508482111562000cbd5762000cbc62000bb1565b5b5062000d2d565b5060208310610133831016604e8410600b841016171562000cfe5782820a90508381111562000cf85762000cf762000bb1565b5b62000d2d565b62000d0d848484600162000bed565b9250905081840481111562000d275762000d2662000bb1565b5b81810290505b9392505050565b600060ff82169050919050565b600062000d4e8262000948565b915062000d5b8362000d34565b925062000d8a7fffffffffffffffffffffffffffffffffffffffffffffffffffffffffffffffff848462000c48565b905092915050565b600062000d9f8262000948565b915062000dac8362000948565b925082820262000dbc8162000948565b9150828204841483151762000dd65762000dd562000bb1565b5b5092915050565b6000819050919050565b62000df28162000ddd565b82525050565b62000e038162000948565b82525050565b600060a08201905062000e20600083018862000de7565b62000e2f602083018762000de7565b62000e3e604083018662000de7565b62000e4d606083018562000df8565b62000e5c608083018462000b83565b9695505050505050565b600082825260208201905092915050565b60005b8381101562000e9757808201518184015260208101905062000e7a565b60008484015250505050565b6000601f19601f8301169050919050565b600062000ec18262000822565b62000ecd818562000e66565b935062000edf81856020860162000e77565b62000eea8162000ea3565b840191505092915050565b6000602082019050818103600083015262000f11818462000eb4565b905092915050565b600081519050919050565b6000819050602082019050919050565b600062000f42825162000ddd565b80915050919050565b600062000f588262000f19565b8262000f648462000f24565b905062000f718162000f34565b9250602082101562000fb45762000faf7fffffffffffffffffffffffffffffffffffffffffffffffffffffffffffffffff83602003600802620008e5565b831692505b5050919050565b600062000fc88262000948565b915062000fd58362000948565b925082820190508082111562000ff05762000fef62000bb1565b5b92915050565b60006060820190506200100d600083018662000b83565b6200101c602083018562000df8565b6200102b604083018462000df8565b949350505050565b60006020820190506200104a600083018462000df8565b92915050565b60805160a05160c05160e051610100516101205161014051612309620010ab60003960006110970152600061105c015260006115ac0152600061158b01526000610d8d01526000610de301526000610e0c01526123096000f3fe608060405234801561001057600080fd5b50600436106101425760003560e01c806379cc6790116100b85780639dc29fac1161007c5780639dc29fac14610359578063a59a997314610375578063a9059cbb14610393578063d505accf146103c3578063dd62ed3e146103df578063f2fde38b1461040f57610142565b806379cc6790146102ad5780637ecebe00146102c957806384b0196e146102f95780638da5cb5b1461031d57806395d89b411461033b57610142565b8063313ce5671161010a578063313ce567146101ff5780633644e5151461021d57806340c10f191461023b57806342966c681461025757806370a0823114610273578063715018a6146102a357610142565b806306fdde0314610147578063095ea7b314610165578063113aa8b11461019557806318160ddd146101b157806323b872dd146101cf575b600080fd5b61014f61042b565b60405161015c9190611a99565b60405180910390f35b61017f600480360381019061017a9190611b54565b6104bd565b60405161018c9190611baf565b60405180910390f35b6101af60048036038101906101aa9190611bca565b6104e0565b005b6101b961052c565b6040516101c69190611c06565b60405180910390f35b6101e960048036038101906101e49190611c21565b610536565b6040516101f69190611baf565b60405180910390f35b610207610565565b6040516102149190611c90565b60405180910390f35b61022561056e565b6040516102329190611cc4565b60405180910390f35b61025560048036038101906102509190611b54565b61057d565b005b610271600480360381019061026c9190611cdf565b61061b565b005b61028d60048036038101906102889190611bca565b61062f565b60405161029a9190611c06565b60405180910390f35b6102ab610677565b005b6102c760048036038101906102c29190611b54565b61068b565b005b6102e360048036038101906102de9190611bca565b6106ab565b6040516102f09190611c06565b60405180910390f35b6103016106bd565b6040516103149796959493929190611e14565b60405180910390f35b610325610767565b6040516103329190611e98565b60405180910390f35b610343610791565b6040516103509190611a99565b60405180910390f35b610373600480360381019061036e9190611b54565b610823565b005b61037d6108c1565b60405161038a9190611e98565b60405180910390f35b6103ad60048036038101906103a89190611b54565b6108e7565b6040516103ba9190611baf565b60405180910390f35b6103dd60048036038101906103d89190611f0b565b61090a565b005b6103f960048036038101906103f49190611fad565b610a52565b6040516104069190611c06565b60405180910390f35b61042960048036038101906104249190611bca565b610ad9565b005b60606003805461043a9061201c565b80601f01602080910402602001604051908101604052809291908181526020018280546104669061201c565b80156104b35780601f10610488576101008083540402835291602001916104b3565b820191906000526020600020905b81548152906001019060200180831161049657829003601f168201915b5050505050905090565b6000806104c8610b5f565b90506104d5818585610b67565b600191505092915050565b6104e8610b79565b80600960006101000a81548173ffffffffffffffffffffffffffffffffffffffff021916908373ffffffffffffffffffffffffffffffffffffffff16021790555050565b6000600254905090565b600080610541610b5f565b905061054e858285610c00565b610559858585610c95565b60019150509392505050565b60006012905090565b6000610578610d89565b905090565b600960009054906101000a900473ffffffffffffffffffffffffffffffffffffffff1673ffffffffffffffffffffffffffffffffffffffff163373ffffffffffffffffffffffffffffffffffffffff161461060d576040517f08c379a000000000000000000000000000000000000000000000000000000000815260040161060490612099565b60405180910390fd5b6106178282610e40565b5050565b61062c610626610b5f565b82610ec2565b50565b60008060008373ffffffffffffffffffffffffffffffffffffffff1673ffffffffffffffffffffffffffffffffffffffff168152602001908152602001600020549050919050565b61067f610b79565b6106896000610f44565b565b61069d82610697610b5f565b83610c00565b6106a78282610ec2565b5050565b60006106b68261100a565b9050919050565b6000606080600080600060606106d1611053565b6106d961108e565b46306000801b600067ffffffffffffffff8111156106fa576106f96120b9565b5b6040519080825280602002602001820160405280156107285781602001602082028036833780820191505090505b507f0f00000000000000000000000000000000000000000000000000000000000000959493929190965096509650965096509650965090919293949596565b6000600560009054906101000a900473ffffffffffffffffffffffffffffffffffffffff16905090565b6060600480546107a09061201c565b80601f01602080910402602001604051908101604052809291908181526020018280546107cc9061201c565b80156108195780601f106107ee57610100808354040283529160200191610819565b820191906000526020600020905b8154815290600101906020018083116107fc57829003601f168201915b5050505050905090565b600960009054906101000a900473ffffffffffffffffffffffffffffffffffffffff1673ffffffffffffffffffffffffffffffffffffffff163373ffffffffffffffffffffffffffffffffffffffff16146108b3576040517f08c379a00000000000000000000000000000000000000000000000000000000081526004016108aa90612099565b60405180910390fd5b6108bd8282610ec2565b5050565b600960009054906101000a900473ffffffffffffffffffffffffffffffffffffffff1681565b6000806108f2610b5f565b90506108ff818585610c95565b600191505092915050565b8342111561094f57836040517f627913020000000000000000000000000000000000000000000000000000000081526004016109469190611c06565b60405180910390fd5b60007f6e71edae12b1b97f4d1f60370fef10105fa2faae0126114a169c64845d6126c988888861097e8c6110c9565b89604051602001610994969594939291906120e8565b60405160208183030381529060405280519060200120905060006109b782611120565b905060006109c78287878761113a565b90508973ffffffffffffffffffffffffffffffffffffffff168173ffffffffffffffffffffffffffffffffffffffff1614610a3b57808a6040517f4b800e46000000000000000000000000000000000000000000000000000000008152600401610a32929190612149565b60405180910390fd5b610a468a8a8a610b67565b50505050505050505050565b6000600160008473ffffffffffffffffffffffffffffffffffffffff1673ffffffffffffffffffffffffffffffffffffffff16815260200190815260200160002060008373ffffffffffffffffffffffffffffffffffffffff1673ffffffffffffffffffffffffffffffffffffffff16815260200190815260200160002054905092915050565b610ae1610b79565b600073ffffffffffffffffffffffffffffffffffffffff168173ffffffffffffffffffffffffffffffffffffffff1603610b535760006040517f1e4fbdf7000000000000000000000000000000000000000000000000000000008152600401610b4a9190611e98565b60405180910390fd5b610b5c81610f44565b50565b600033905090565b610b74838383600161116a565b505050565b610b81610b5f565b73ffffffffffffffffffffffffffffffffffffffff16610b9f610767565b73ffffffffffffffffffffffffffffffffffffffff1614610bfe57610bc2610b5f565b6040517f118cdaa7000000000000000000000000000000000000000000000000000000008152600401610bf59190611e98565b60405180910390fd5b565b6000610c0c8484610a52565b90507fffffffffffffffffffffffffffffffffffffffffffffffffffffffffffffffff811015610c8f5781811015610c7f578281836040517ffb8f41b2000000000000000000000000000000000000000000000000000000008152600401610c7693929190612172565b60405180910390fd5b610c8e8484848403600061116a565b5b50505050565b600073ffffffffffffffffffffffffffffffffffffffff168373ffffffffffffffffffffffffffffffffffffffff1603610d075760006040517f96c6fd1e000000000000000000000000000000000000000000000000000000008152600401610cfe9190611e98565b60405180910390fd5b600073ffffffffffffffffffffffffffffffffffffffff168273ffffffffffffffffffffffffffffffffffffffff1603610d795760006040517fec442f05000000000000000000000000000000000000000000000000000000008152600401610d709190611e98565b60405180910390fd5b610d84838383611341565b505050565b60007f000000000000000000000000000000000000000000000000000000000000000073ffffffffffffffffffffffffffffffffffffffff163073ffffffffffffffffffffffffffffffffffffffff16148015610e0557507f000000000000000000000000000000000000000000000000000000000000000046145b15610e32577f00000000000000000000000000000000000000000000000000000000000000009050610e3d565b610e3a611566565b90505b90565b600073ffffffffffffffffffffffffffffffffffffffff168273ffffffffffffffffffffffffffffffffffffffff1603610eb25760006040517fec442f05000000000000000000000000000000000000000000000000000000008152600401610ea99190611e98565b60405180910390fd5b610ebe60008383611341565b5050565b600073ffffffffffffffffffffffffffffffffffffffff168273ffffffffffffffffffffffffffffffffffffffff1603610f345760006040517f96c6fd1e000000000000000000000000000000000000000000000000000000008152600401610f2b9190611e98565b60405180910390fd5b610f4082600083611341565b5050565b6000600560009054906101000a900473ffffffffffffffffffffffffffffffffffffffff16905081600560006101000a81548173ffffffffffffffffffffffffffffffffffffffff021916908373ffffffffffffffffffffffffffffffffffffffff1602179055508173ffffffffffffffffffffffffffffffffffffffff168173ffffffffffffffffffffffffffffffffffffffff167f8be0079c531659141344cd1fd0a4f28419497f9722a3daafe3b4186f6b6457e060405160405180910390a35050565b6000600860008373ffffffffffffffffffffffffffffffffffffffff1673ffffffffffffffffffffffffffffffffffffffff168152602001908152602001600020549050919050565b606061108960067f00000000000000000000000000000000000000000000000000000000000000006115fc90919063ffffffff16565b905090565b60606110c460077f00000000000000000000000000000000000000000000000000000000000000006115fc90919063ffffffff16565b905090565b6000600860008373ffffffffffffffffffffffffffffffffffffffff1673ffffffffffffffffffffffffffffffffffffffff1681526020019081526020016000206000815480929190600101919050559050919050565b600061113361112d610d89565b836116ac565b9050919050565b60008060008061114c888888886116ed565b92509250925061115c82826117e1565b829350505050949350505050565b600073ffffffffffffffffffffffffffffffffffffffff168473ffffffffffffffffffffffffffffffffffffffff16036111dc5760006040517fe602df050000000000000000000000000000000000000000000000000000000081526004016111d39190611e98565b60405180910390fd5b600073ffffffffffffffffffffffffffffffffffffffff168373ffffffffffffffffffffffffffffffffffffffff160361124e5760006040517f94280d620000000000000000000000000000000000000000000000000000000081526004016112459190611e98565b60405180910390fd5b81600160008673ffffffffffffffffffffffffffffffffffffffff1673ffffffffffffffffffffffffffffffffffffffff16815260200190815260200160002060008573ffffffffffffffffffffffffffffffffffffffff1673ffffffffffffffffffffffffffffffffffffffff16815260200190815260200160002081905550801561133b578273ffffffffffffffffffffffffffffffffffffffff168473ffffffffffffffffffffffffffffffffffffffff167f8c5be1e5ebec7d5bd14f71427d1e84f3dd0314c0f7b2291e5b200ac8c7c3b925846040516113329190611c06565b60405180910390a35b50505050565b600073ffffffffffffffffffffffffffffffffffffffff168373ffffffffffffffffffffffffffffffffffffffff160361139357806002600082825461138791906121d8565b92505081905550611466565b60008060008573ffffffffffffffffffffffffffffffffffffffff1673ffffffffffffffffffffffffffffffffffffffff1681526020019081526020016000205490508181101561141f578381836040517fe450d38c00000000000000000000000000000000000000000000000000000000815260040161141693929190612172565b60405180910390fd5b8181036000808673ffffffffffffffffffffffffffffffffffffffff1673ffffffffffffffffffffffffffffffffffffffff16815260200190815260200160002081905550505b600073ffffffffffffffffffffffffffffffffffffffff168273ffffffffffffffffffffffffffffffffffffffff16036114af57806002600082825403925050819055506114fc565b806000808473ffffffffffffffffffffffffffffffffffffffff1673ffffffffffffffffffffffffffffffffffffffff168152602001908152602001600020600082825401925050819055505b8173ffffffffffffffffffffffffffffffffffffffff168373ffffffffffffffffffffffffffffffffffffffff167fddf252ad1be2c89b69c2b068fc378daa952ba7f163c4a11628f55a4df523b3ef836040516115599190611c06565b60405180910390a3505050565b60007f8b73c3c69bb8fe3d512ecc4cf759cc79239f7b179b0ffacaa9a75d522b39400f7f00000000000000000000000000000000000000000000000000000000000000007f000000000000000000000000000000000000000000000000000000000000000046306040516020016115e195949392919061220c565b60405160208183030381529060405280519060200120905090565b606060ff60001b83146116195761161283611945565b90506116a6565b8180546116259061201c565b80601f01602080910402602001604051908101604052809291908181526020018280546116519061201c565b801561169e5780601f106116735761010080835404028352916020019161169e565b820191906000526020600020905b81548152906001019060200180831161168157829003601f168201915b505050505090505b92915050565b60006040517f190100000000000000000000000000000000000000000000000000000000000081528360028201528260228201526042812091505092915050565b60008060007f7fffffffffffffffffffffffffffffff5d576e7357a4501ddfe92f46681b20a08460001c111561172d5760006003859250925092506117d7565b600060018888888860405160008152602001604052604051611752949392919061225f565b6020604051602081039080840390855afa158015611774573d6000803e3d6000fd5b505050602060405103519050600073ffffffffffffffffffffffffffffffffffffffff168173ffffffffffffffffffffffffffffffffffffffff16036117c857600060016000801b935093509350506117d7565b8060008060001b935093509350505b9450945094915050565b600060038111156117f5576117f46122a4565b5b826003811115611808576118076122a4565b5b03156119415760016003811115611822576118216122a4565b5b826003811115611835576118346122a4565b5b0361186c576040517ff645eedf00000000000000000000000000000000000000000000000000000000815260040160405180910390fd5b600260038111156118805761187f6122a4565b5b826003811115611893576118926122a4565b5b036118d8578060001c6040517ffce698f70000000000000000000000000000000000000000000000000000000081526004016118cf9190611c06565b60405180910390fd5b6003808111156118eb576118ea6122a4565b5b8260038111156118fe576118fd6122a4565b5b0361194057806040517fd78bce0c0000000000000000000000000000000000000000000000000000000081526004016119379190611cc4565b60405180910390fd5b5b5050565b60606000611952836119b9565b90506000602067ffffffffffffffff811115611971576119706120b9565b5b6040519080825280601f01601f1916602001820160405280156119a35781602001600182028036833780820191505090505b5090508181528360208201528092505050919050565b60008060ff8360001c169050601f811115611a00576040517fb3512b0c00000000000000000000000000000000000000000000000000000000815260040160405180910390fd5b80915050919050565b600081519050919050565b600082825260208201905092915050565b60005b83811015611a43578082015181840152602081019050611a28565b60008484015250505050565b6000601f19601f8301169050919050565b6000611a6b82611a09565b611a758185611a14565b9350611a85818560208601611a25565b611a8e81611a4f565b840191505092915050565b60006020820190508181036000830152611ab38184611a60565b905092915050565b600080fd5b600073ffffffffffffffffffffffffffffffffffffffff82169050919050565b6000611aeb82611ac0565b9050919050565b611afb81611ae0565b8114611b0657600080fd5b50565b600081359050611b1881611af2565b92915050565b6000819050919050565b611b3181611b1e565b8114611b3c57600080fd5b50565b600081359050611b4e81611b28565b92915050565b60008060408385031215611b6b57611b6a611abb565b5b6000611b7985828601611b09565b9250506020611b8a85828601611b3f565b9150509250929050565b60008115159050919050565b611ba981611b94565b82525050565b6000602082019050611bc46000830184611ba0565b92915050565b600060208284031215611be057611bdf611abb565b5b6000611bee84828501611b09565b91505092915050565b611c0081611b1e565b82525050565b6000602082019050611c1b6000830184611bf7565b92915050565b600080600060608486031215611c3a57611c39611abb565b5b6000611c4886828701611b09565b9350506020611c5986828701611b09565b9250506040611c6a86828701611b3f565b9150509250925092565b600060ff82169050919050565b611c8a81611c74565b82525050565b6000602082019050611ca56000830184611c81565b92915050565b6000819050919050565b611cbe81611cab565b82525050565b6000602082019050611cd96000830184611cb5565b92915050565b600060208284031215611cf557611cf4611abb565b5b6000611d0384828501611b3f565b91505092915050565b60007fff0000000000000000000000000000000000000000000000000000000000000082169050919050565b611d4181611d0c565b82525050565b611d5081611ae0565b82525050565b600081519050919050565b600082825260208201905092915050565b6000819050602082019050919050565b611d8b81611b1e565b82525050565b6000611d9d8383611d82565b60208301905092915050565b6000602082019050919050565b6000611dc182611d56565b611dcb8185611d61565b9350611dd683611d72565b8060005b83811015611e07578151611dee8882611d91565b9750611df983611da9565b925050600181019050611dda565b5085935050505092915050565b600060e082019050611e29600083018a611d38565b8181036020830152611e3b8189611a60565b90508181036040830152611e4f8188611a60565b9050611e5e6060830187611bf7565b611e6b6080830186611d47565b611e7860a0830185611cb5565b81810360c0830152611e8a8184611db6565b905098975050505050505050565b6000602082019050611ead6000830184611d47565b92915050565b611ebc81611c74565b8114611ec757600080fd5b50565b600081359050611ed981611eb3565b92915050565b611ee881611cab565b8114611ef357600080fd5b50565b600081359050611f0581611edf565b92915050565b600080600080600080600060e0888a031215611f2a57611f29611abb565b5b6000611f388a828b01611b09565b9750506020611f498a828b01611b09565b9650506040611f5a8a828b01611b3f565b9550506060611f6b8a828b01611b3f565b9450506080611f7c8a828b01611eca565b93505060a0611f8d8a828b01611ef6565b92505060c0611f9e8a828b01611ef6565b91505092959891949750929550565b60008060408385031215611fc457611fc3611abb565b5b6000611fd285828601611b09565b9250506020611fe385828601611b09565b9150509250929050565b7f4e487b7100000000000000000000000000000000000000000000000000000000600052602260045260246000fd5b6000600282049050600182168061203457607f821691505b60208210810361204757612046611fed565b5b50919050565b7f4e6f7420617574686f72697a6564000000000000000000000000000000000000600082015250565b6000612083600e83611a14565b915061208e8261204d565b602082019050919050565b600060208201905081810360008301526120b281612076565b9050919050565b7f4e487b7100000000000000000000000000000000000000000000000000000000600052604160045260246000fd5b600060c0820190506120fd6000830189611cb5565b61210a6020830188611d47565b6121176040830187611d47565b6121246060830186611bf7565b6121316080830185611bf7565b61213e60a0830184611bf7565b979650505050505050565b600060408201905061215e6000830185611d47565b61216b6020830184611d47565b9392505050565b60006060820190506121876000830186611d47565b6121946020830185611bf7565b6121a16040830184611bf7565b949350505050565b7f4e487b7100000000000000000000000000000000000000000000000000000000600052601160045260246000fd5b60006121e382611b1e565b91506121ee83611b1e565b9250828201905080821115612206576122056121a9565b5b92915050565b600060a0820190506122216000830188611cb5565b61222e6020830187611cb5565b61223b6040830186611cb5565b6122486060830185611bf7565b6122556080830184611d47565b9695505050505050565b60006080820190506122746000830187611cb5565b6122816020830186611c81565b61228e6040830185611cb5565b61229b6060830184611cb5565b95945050505050565b7f4e487b7100000000000000000000000000000000000000000000000000000000600052602160045260246000fdfea26469706673582212200ab03698c1bc3d361ba5ccfd629e824c948dcdc2efe5b4f170e2eea427c469b664736f6c63430008170033",
  "linkReferences": {},
  "deployedLinkReferences": {}
}