{
  "_format": "hh-sol-artifact-1",
  "contractName": "VeltToken",
  "sourceName": "contracts/VeltToken.sol",
  "abi": [
    {
      "inputs": [
        {
          "internalType": "address",
          "name": "recipient",
          "type": "address"
        },
        {
          "internalType": "address",
          "name": "initialOwner",
          "type": "address"
        }
      ],
      "stateMutability": "nonpayable",
      "type": "constructor"
    },
    {
      "inputs": [],
      "name": "ECDSAInvalidSignature",
      "type": "error"
    },
    {
      "inputs": [
        {
          "internalType": "uint256",
          "name": "length",
          "type": "uint256"
        }
      ],
      "name": "ECDSAInvalidSignatureLength",
      "type": "error"
    },
    {
      "inputs": [
        {
          "internalType": "bytes32",
          "name": "s",
          "type": "bytes32"
        }
      ],
      "name": "ECDSAInvalidSignatureS",
      "type": "error"
    },
    {
      "inputs": [
        {
          "internalType": "address",
          "name": "spender",
          "type": "address"
        },
        {
          "internalType": "uint256",
          "name": "allowance",
          "type": "uint256"
        },
        {
          "internalType": "uint256",
          "name": "needed",
          "type": "uint256"
        }
      ],
      "name": "ERC20InsufficientAllowance",
      "type": "error"
    },
    {
      "inputs": [
        {
          "internalType": "address",
          "name": "sender",
          "type": "address"
        },
        {
          "internalType": "uint256",
          "name": "balance",
          "type": "uint256"
        },
        {
          "internalType": "uint256",
          "name": "needed",
          "type": "uint256"
        }
      ],
      "name": "ERC20InsufficientBalance",
      "type": "error"
    },
    {
      "inputs": [
        {
          "internalType": "address",
          "name": "approver",
          "type": "address"
        }
      ],
      "name": "ERC20InvalidApprover",
      "type": "error"
    },
    {
      "inputs": [
        {
          "internalType": "address",
          "name": "receiver",
          "type": "address"
        }
      ],
      "name": "ERC20InvalidReceiver",
      "type": "error"
    },
    {
      "inputs": [
        {
          "internalType": "address",
          "name": "sender",
          "type": "address"
        }
      ],
      "name": "ERC20InvalidSender",
      "type": "error"
    },
    {
      "inputs": [
        {
          "internalType": "address",
          "name": "spender",
          "type": "address"
        }
      ],
      "name": "ERC20InvalidSpender",
      "type": "error"
    },
    {
      "inputs": [
        {
          "internalType": "uint256",
          "name": "deadline",
          "type": "uint256"
        }
      ],
      "name": "ERC2612ExpiredSignature",
      "type": "error"
    },
    {
      "inputs": [
        {
          "internalType": "address",
          "name": "signer",
          "type": "address"
        },
        {
          "internalType": "address",
          "name": "owner",
          "type": "address"
        }
      ],
      "name": "ERC2612InvalidSigner",
      "type": "error"
    },
    {
      "inputs": [
        {
          "internalType": "address",
          "name": "account",
          "type": "address"
        },
        {
          "internalType": "uint256",
          "name": "currentNonce",
          "type": "uint256"
        }
      ],
      "name": "InvalidAccountNonce",
      "type": "error"
    },
    {
      "inputs": [],
      "name": "InvalidShortString",
      "type": "error"
    },
    {
      "inputs": [
        {
          "internalType": "address",
          "name": "owner",
          "type": "address"
        }
      ],
      "name": "OwnableInvalidOwner",
      "type": "error"
    },
    {
      "inputs": [
        {
          "internalType": "address",
          "name": "account",
          "type": "address"
        }
      ],
      "name": "OwnableUnauthorizedAccount",
      "type": "error"
    },
    {
      "inputs": [
        {
          "internalType": "string",
          "name": "str",
          "type": "string"
        }
      ],
      "name": "StringTooLong",
      "type": "error"
    },
    {
      "anonymous": false,
      "inputs": [
        {
          "indexed": true,
          "internalType": "address",
          "name": "owner",
          "type": "address"
        },
        {
          "indexed": true,
          "internalType": "address",
          "name": "spender",
          "type": "address"
        },
        {
          "indexed": false,
          "internalType": "uint256",
          "name": "value",
          "type": "uint256"
        }
      ],
      "name": "Approval",
      "type": "event"
    },
    {
      "anonymous": false,
      "inputs": [],
      "name": "EIP712DomainChanged",
      "type": "event"
    },
    {
      "anonymous": false,
      "inputs": [
        {
          "indexed": true,
          "internalType": "address",
          "name": "previousOwner",
          "type": "address"
        },
        {
          "indexed": true,
          "internalType": "address",
          "name": "newOwner",
          "type": "address"
        }
      ],
      "name": "OwnershipTransferred",
      "type": "event"
    },
    {
      "anonymous": false,
      "inputs": [
        {
          "indexed": true,
          "internalType": "address",
          "name": "from",
          "type": "address"
        },
        {
          "indexed": true,
          "internalType": "address",
          "name": "to",
          "type": "address"
        },
        {
          "indexed": false,
          "internalType": "uint256",
          "name": "value",
          "type": "uint256"
        }
      ],
      "name": "Transfer",
      "type": "event"
    },
    {
      "inputs": [],
      "name": "DOMAIN_SEPARATOR",
      "outputs": [
        {
          "internalType": "bytes32",
          "name": "",
          "type": "bytes32"
        }
      ],
      "stateMutability": "view",
      "type": "function"
    },
    {
      "inputs": [
        {
          "internalType": "address",
          "name": "owner",
          "type": "address"
        },
        {
          "internalType": "address",
          "name": "spender",
          "type": "address"
        }
      ],
      "name": "allowance",
      "outputs": [
        {
          "internalType": "uint256",
          "name": "",
          "type": "uint256"
        }
      ],
      "stateMutability": "view",
      "type": "function"
    },
    {
      "inputs": [
        {
          "internalType": "address",
          "name": "spender",
          "type": "address"
        },
        {
          "internalType": "uint256",
          "name": "value",
          "type": "uint256"
        }
      ],
      "name": "approve",
      "outputs": [
        {
          "internalType": "bool",
          "name": "",
          "type": "bool"
        }
      ],
      "stateMutability": "nonpayable",
      "type": "function"
    },
    {
      "inputs": [
        {
          "internalType": "address",
          "name": "account",
          "type": "address"
        }
      ],
      "name": "balanceOf",
      "outputs": [
        {
          "internalType": "uint256",
          "name": "",
          "type": "uint256"
        }
      ],
      "stateMutability": "view",
      "type": "function"
    },
    {
      "inputs": [],
      "name": "decimals",
      "outputs": [
        {
          "internalType": "uint8",
          "name": "",
          "type": "uint8"
        }
      ],
      "stateMutability": "view",
      "type": "function"
    },
    {
      "inputs": [],
      "name": "eip712Domain",
      "outputs": [
        {
          "internalType": "bytes1",
          "name": "fields",
          "type": "bytes1"
        },
        {
          "internalType": "string",
          "name": "name",
          "type": "string"
        },
        {
          "internalType": "string",
          "name": "version",
          "type": "string"
        },
        {
          "internalType": "uint256",
          "name": "chainId",
          "type": "uint256"
        },
        {
          "internalType": "address",
          "name": "verifyingContract",
          "type": "address"
        },
        {
          "internalType": "bytes32",
          "name": "salt",
          "type": "bytes32"
        },
        {
          "internalType": "uint256[]",
          "name": "extensions",
          "type": "uint256[]"
        }
      ],
      "stateMutability": "view",
      "type": "function"
    },
    {
      "inputs": [
        {
          "internalType": "address",
          "name": "to",
          "type": "address"
        },
        {
          "internalType": "uint256",
          "name": "amount",
          "type": "uint256"
        }
      ],
      "name": "mint",
      "outputs": [],
      "stateMutability": "nonpayable",
      "type": "function"
    },
    {
      "inputs": [],
      "name": "name",
      "outputs": [
        {
          "internalType": "string",
          "name": "",
          "type": "string"
        }
      ],
      "stateMutability": "view",
      "type": "function"
    },
    {
      "inputs": [
        {
          "internalType": "address",
          "name": "owner",
          "type": "address"
        }
      ],
      "name": "nonces",
      "outputs": [
        {
          "internalType": "uint256",
          "name": "",
          "type": "uint256"
        }
      ],
      "stateMutability": "view",
      "type": "function"
    },
    {
      "inputs": [],
      "name": "owner",
      "outputs": [
        {
          "internalType": "address",
          "name": "",
          "type": "address"
        }
      ],
      "stateMutability": "view",
      "type": "function"
    },
    {
      "inputs": [
        {
          "internalType": "address",
          "name": "owner",
          "type": "address"
        },
        {
          "internalType": "address",
          "name": "spender",
          "type": "address"
        },
        {
          "internalType": "uint256",
          "name": "value",
          "type": "uint256"
        },
        {
          "internalType": "uint256",
          "name": "deadline",
          "type": "uint256"
        },
        {
          "internalType": "uint8",
          "name": "v",
          "type": "uint8"
        },
        {
          "internalType": "bytes32",
          "name": "r",
          "type": "bytes32"
        },
        {
          "internalType": "bytes32",
          "name": "s",
          "type": "bytes32"
        }
      ],
      "name": "permit",
      "outputs": [],
      "stateMutability": "nonpayable",
      "type": "function"
    },
    {
      "inputs": [],
      "name": "renounceOwnership",
      "outputs": [],
      "stateMutability": "nonpayable",
      "type": "function"
    },
    {
      "inputs": [],
      "name": "symbol",
      "outputs": [
        {
          "internalType": "string",
          "name": "",
          "type": "string"
        }
      ],
      "stateMutability": "view",
      "type": "function"
    },
    {
      "inputs": [],
      "name": "totalSupply",
      "outputs": [
        {
          "internalType": "uint256",
          "name": "",
          "type": "uint256"
        }
      ],
      "stateMutability": "view",
      "type": "function"
    },
    {
      "inputs": [
        {
          "internalType": "address",
          "name": "to",
          "type": "address"
        },
        {
          "internalType": "uint256",
          "name": "value",
          "type": "uint256"
        }
      ],
      "name": "transfer",
      "outputs": [
        {
          "internalType": "bool",
          "name": "",
          "type": "bool"
        }
      ],
      "stateMutability": "nonpayable",
      "type": "function"
    },
    {
      "inputs": [
        {
          "internalType": "address",
          "name": "from",
          "type": "address"
        },
        {
          "internalType": "address",
          "name": "to",
          "type": "address"
        },
        {
          "internalType": "uint256",
          "name": "value",
          "type": "uint256"
        }
      ],
      "name": "transferFrom",
      "outputs": [
        {
          "internalType": "bool",
          "name": "",
          "type": "bool"
        }
      ],
      "stateMutability": "nonpayable",
      "type": "function"
    },
    {
      "inputs": [
        {
          "internalType": "address",
          "name": "newOwner",
          "type": "address"
        }
      ],
      "name": "transferOwnership",
      "outputs": [],
      "stateMutability": "nonpayable",
      "type": "function"
    }
  ],
  "bytecode": "0x6101606040523480156200001257600080fd5b5060405162003006380380620030068339818101604052810190620000389190620007d9565b6040518060400160405280600981526020017f56656c74546f6b656e0000000000000000000000000000000000000000000000815250806040518060400160405280600181526020017f3100000000000000000000000000000000000000000000000000000000000000815250836040518060400160405280600981526020017f56656c74546f6b656e00000000000000000000000000000000000000000000008152506040518060400160405280600381526020017f564c540000000000000000000000000000000000000000000000000000000000815250816003908162000123919062000a9a565b50806004908162000135919062000a9a565b505050600073ffffffffffffffffffffffffffffffffffffffff168173ffffffffffffffffffffffffffffffffffffffff1603620001ad5760006040517f1e4fbdf7000000000000000000000000000000000000000000000000000000008152600401620001a4919062000b92565b60405180910390fd5b620001be81620002b760201b60201c565b50620001d56006836200037d60201b90919060201c565b6101208181525050620001f36007826200037d60201b90919060201c565b6101408181525050818051906020012060e08181525050808051906020012061010081815250504660a0818152505062000232620003d560201b60201c565b608081815250503073ffffffffffffffffffffffffffffffffffffffff1660c08173ffffffffffffffffffffffffffffffffffffffff1681525050505050620002af82620002856200043260201b60201c565b600a62000293919062000d3f565b620186a0620002a3919062000d90565b6200043b60201b60201c565b50506200104e565b6000600560009054906101000a900473ffffffffffffffffffffffffffffffffffffffff16905081600560006101000a81548173ffffffffffffffffffffffffffffffffffffffff021916908373ffffffffffffffffffffffffffffffffffffffff1602179055508173ffffffffffffffffffffffffffffffffffffffff168173ffffffffffffffffffffffffffffffffffffffff167f8be0079c531659141344cd1fd0a4f28419497f9722a3daafe3b4186f6b6457e060405160405180910390a35050565b6000602083511015620003a3576200039b83620004c860201b60201c565b9050620003cf565b82620003b5836200053560201b60201c565b6000019081620003c6919062000a9a565b5060ff60001b90505b92915050565b60007f8b73c3c69bb8fe3d512ecc4cf759cc79239f7b179b0ffacaa9a75d522b39400f60e0516101005146306040516020016200041795949392919062000e07565b60405160208183030381529060405280519060200120905090565b60006012905090565b600073ffffffffffffffffffffffffffffffffffffffff168273ffffffffffffffffffffffffffffffffffffffff1603620004b05760006040517fec442f05000000000000000000000000000000000000000000000000000000008152600401620004a7919062000b92565b60405180910390fd5b620004c4600083836200053f60201b60201c565b5050565b600080829050601f815111156200051857826040517f305a27a90000000000000000000000000000000000000000000000000000000081526004016200050f919062000ef3565b60405180910390fd5b805181620005269062000f49565b60001c1760001b915050919050565b6000819050919050565b600073ffffffffffffffffffffffffffffffffffffffff168373ffffffffffffffffffffffffffffffffffffffff16036200059557806002600082825462000588919062000fb9565b925050819055506200066b565b60008060008573ffffffffffffffffffffffffffffffffffffffff1673ffffffffffffffffffffffffffffffffffffffff1681526020019081526020016000205490508181101562000624578381836040517fe450d38c0000000000000000000000000000000000000000000000000000000081526004016200061b9392919062000ff4565b60405180910390fd5b8181036000808673ffffffffffffffffffffffffffffffffffffffff1673ffffffffffffffffffffffffffffffffffffffff16815260200190815260200160002081905550505b600073ffffffffffffffffffffffffffffffffffffffff168273ffffffffffffffffffffffffffffffffffffffff1603620006b6578060026000828254039250508190555062000703565b806000808473ffffffffffffffffffffffffffffffffffffffff1673ffffffffffffffffffffffffffffffffffffffff168152602001908152602001600020600082825401925050819055505b8173ffffffffffffffffffffffffffffffffffffffff168373ffffffffffffffffffffffffffffffffffffffff167fddf252ad1be2c89b69c2b068fc378daa952ba7f163c4a11628f55a4df523b3ef8360405162000762919062001031565b60405180910390a3505050565b600080fd5b600073ffffffffffffffffffffffffffffffffffffffff82169050919050565b6000620007a18262000774565b9050919050565b620007b38162000794565b8114620007bf57600080fd5b50565b600081519050620007d381620007a8565b92915050565b60008060408385031215620007f357620007f26200076f565b5b60006200080385828601620007c2565b92505060206200081685828601620007c2565b9150509250929050565b600081519050919050565b7f4e487b7100000000000000000000000000000000000000000000000000000000600052604160045260246000fd5b7f4e487b7100000000000000000000000000000000000000000000000000000000600052602260045260246000fd5b60006002820490506001821680620008a257607f821691505b602082108103620008b857620008b76200085a565b5b50919050565b60008190508160005260206000209050919050565b60006020601f8301049050919050565b600082821b905092915050565b600060088302620009227fffffffffffffffffffffffffffffffffffffffffffffffffffffffffffffffff82620008e3565b6200092e8683620008e3565b95508019841693508086168417925050509392505050565b6000819050919050565b6000819050919050565b60006200097b620009756200096f8462000946565b62000950565b62000946565b9050919050565b6000819050919050565b62000997836200095a565b620009af620009a68262000982565b848454620008f0565b825550505050565b600090565b620009c6620009b7565b620009d38184846200098c565b505050565b5b81811015620009fb57620009ef600082620009bc565b600181019050620009d9565b5050565b601f82111562000a4a5762000a1481620008be565b62000a1f84620008d3565b8101602085101562000a2f578190505b62000a4762000a3e85620008d3565b830182620009d8565b50505b505050565b600082821c905092915050565b600062000a6f6000198460080262000a4f565b1980831691505092915050565b600062000a8a838362000a5c565b9150826002028217905092915050565b62000aa58262000820565b67ffffffffffffffff81111562000ac15762000ac06200082b565b5b62000acd825462000889565b62000ada828285620009ff565b600060209050601f83116001811462000b12576000841562000afd578287015190505b62000b09858262000a7c565b86555062000b79565b601f19841662000b2286620008be565b60005b8281101562000b4c5784890151825560018201915060208501945060208101905062000b25565b8683101562000b6c578489015162000b68601f89168262000a5c565b8355505b6001600288020188555050505b505050505050565b62000b8c8162000794565b82525050565b600060208201905062000ba9600083018462000b81565b92915050565b7f4e487b7100000000000000000000000000000000000000000000000000000000600052601160045260246000fd5b60008160011c9050919050565b6000808291508390505b600185111562000c3d5780860481111562000c155762000c1462000baf565b5b600185161562000c255780820291505b808102905062000c358562000bde565b945062000bf5565b94509492505050565b60008262000c58576001905062000d2b565b8162000c68576000905062000d2b565b816001811462000c81576002811462000c8c5762000cc2565b600191505062000d2b565b60ff84111562000ca15762000ca062000baf565b5b8360020a91508482111562000cbb5762000cba62000baf565b5b5062000d2b565b5060208310610133831016604e8410600b841016171562000cfc5782820a90508381111562000cf65762000cf562000baf565b5b62000d2b565b62000d0b848484600162000beb565b9250905081840481111562000d255762000d2462000baf565b5b81810290505b9392505050565b600060ff82169050919050565b600062000d4c8262000946565b915062000d598362000d32565b925062000d887fffffffffffffffffffffffffffffffffffffffffffffffffffffffffffffffff848462000c46565b905092915050565b600062000d9d8262000946565b915062000daa8362000946565b925082820262000dba8162000946565b9150828204841483151762000dd45762000dd362000baf565b5b5092915050565b6000819050919050565b62000df08162000ddb565b82525050565b62000e018162000946565b82525050565b600060a08201905062000e1e600083018862000de5565b62000e2d602083018762000de5565b62000e3c604083018662000de5565b62000e4b606083018562000df6565b62000e5a608083018462000b81565b9695505050505050565b600082825260208201905092915050565b60005b8381101562000e9557808201518184015260208101905062000e78565b60008484015250505050565b6000601f19601f8301169050919050565b600062000ebf8262000820565b62000ecb818562000e64565b935062000edd81856020860162000e75565b62000ee88162000ea1565b840191505092915050565b6000602082019050818103600083015262000f0f818462000eb2565b905092915050565b600081519050919050565b6000819050602082019050919050565b600062000f40825162000ddb565b80915050919050565b600062000f568262000f17565b8262000f628462000f22565b905062000f6f8162000f32565b9250602082101562000fb25762000fad7fffffffffffffffffffffffffffffffffffffffffffffffffffffffffffffffff83602003600802620008e3565b831692505b5050919050565b600062000fc68262000946565b915062000fd38362000946565b925082820190508082111562000fee5762000fed62000baf565b5b92915050565b60006060820190506200100b600083018662000b81565b6200101a602083018562000df6565b62001029604083018462000df6565b949350505050565b600060208201905062001048600083018462000df6565b92915050565b60805160a05160c05160e051610100516101205161014051611f5d620010a96000396000610d8401526000610d49015260006112990152600061127801526000610a7501526000610acb01526000610af40152611f5d6000f3fe608060405234801561001057600080fd5b506004361061010b5760003560e01c8063715018a6116100a257806395d89b411161007157806395d89b41146102b0578063a9059cbb146102ce578063d505accf146102fe578063dd62ed3e1461031a578063f2fde38b1461034a5761010b565b8063715018a6146102345780637ecebe001461023e57806384b0196e1461026e5780638da5cb5b146102925761010b565b8063313ce567116100de578063313ce567146101ac5780633644e515146101ca57806340c10f19146101e857806370a08231146102045761010b565b806306fdde0314610110578063095ea7b31461012e57806318160ddd1461015e57806323b872dd1461017c575b600080fd5b610118610366565b6040516101259190611786565b60405180910390f35b61014860048036038101906101439190611841565b6103f8565b604051610155919061189c565b60405180910390f35b61016661041b565b60405161017391906118c6565b60405180910390f35b610196600480360381019061019191906118e1565b610425565b6040516101a3919061189c565b60405180910390f35b6101b4610454565b6040516101c19190611950565b60405180910390f35b6101d261045d565b6040516101df9190611984565b60405180910390f35b61020260048036038101906101fd9190611841565b61046c565b005b61021e6004803603810190610219919061199f565b610482565b60405161022b91906118c6565b60405180910390f35b61023c6104ca565b005b6102586004803603810190610253919061199f565b6104de565b60405161026591906118c6565b60405180910390f35b6102766104f0565b6040516102899796959493929190611ad4565b60405180910390f35b61029a61059a565b6040516102a79190611b58565b60405180910390f35b6102b86105c4565b6040516102c59190611786565b60405180910390f35b6102e860048036038101906102e39190611841565b610656565b6040516102f5919061189c565b60405180910390f35b61031860048036038101906103139190611bcb565b610679565b005b610334600480360381019061032f9190611c6d565b6107c1565b60405161034191906118c6565b60405180910390f35b610364600480360381019061035f919061199f565b610848565b005b60606003805461037590611cdc565b80601f01602080910402602001604051908101604052809291908181526020018280546103a190611cdc565b80156103ee5780601f106103c3576101008083540402835291602001916103ee565b820191906000526020600020905b8154815290600101906020018083116103d157829003601f168201915b5050505050905090565b6000806104036108ce565b90506104108185856108d6565b600191505092915050565b6000600254905090565b6000806104306108ce565b905061043d8582856108e8565b61044885858561097d565b60019150509392505050565b60006012905090565b6000610467610a71565b905090565b610474610b28565b61047e8282610baf565b5050565b60008060008373ffffffffffffffffffffffffffffffffffffffff1673ffffffffffffffffffffffffffffffffffffffff168152602001908152602001600020549050919050565b6104d2610b28565b6104dc6000610c31565b565b60006104e982610cf7565b9050919050565b600060608060008060006060610504610d40565b61050c610d7b565b46306000801b600067ffffffffffffffff81111561052d5761052c611d0d565b5b60405190808252806020026020018201604052801561055b5781602001602082028036833780820191505090505b507f0f00000000000000000000000000000000000000000000000000000000000000959493929190965096509650965096509650965090919293949596565b6000600560009054906101000a900473ffffffffffffffffffffffffffffffffffffffff16905090565b6060600480546105d390611cdc565b80601f01602080910402602001604051908101604052809291908181526020018280546105ff90611cdc565b801561064c5780601f106106215761010080835404028352916020019161064c565b820191906000526020600020905b81548152906001019060200180831161062f57829003601f168201915b5050505050905090565b6000806106616108ce565b905061066e81858561097d565b600191505092915050565b834211156106be57836040517f627913020000000000000000000000000000000000000000000000000000000081526004016106b591906118c6565b60405180910390fd5b60007f6e71edae12b1b97f4d1f60370fef10105fa2faae0126114a169c64845d6126c98888886106ed8c610db6565b8960405160200161070396959493929190611d3c565b604051602081830303815290604052805190602001209050600061072682610e0d565b9050600061073682878787610e27565b90508973ffffffffffffffffffffffffffffffffffffffff168173ffffffffffffffffffffffffffffffffffffffff16146107aa57808a6040517f4b800e460000000000000000000000000000000000000000000000000000000081526004016107a1929190611d9d565b60405180910390fd5b6107b58a8a8a6108d6565b50505050505050505050565b6000600160008473ffffffffffffffffffffffffffffffffffffffff1673ffffffffffffffffffffffffffffffffffffffff16815260200190815260200160002060008373ffffffffffffffffffffffffffffffffffffffff1673ffffffffffffffffffffffffffffffffffffffff16815260200190815260200160002054905092915050565b610850610b28565b600073ffffffffffffffffffffffffffffffffffffffff168173ffffffffffffffffffffffffffffffffffffffff16036108c25760006040517f1e4fbdf70000000000000000000000000000000000000000000000000000000081526004016108b99190611b58565b60405180910390fd5b6108cb81610c31565b50565b600033905090565b6108e38383836001610e57565b505050565b60006108f484846107c1565b90507fffffffffffffffffffffffffffffffffffffffffffffffffffffffffffffffff8110156109775781811015610967578281836040517ffb8f41b200000000000000000000000000000000000000000000000000000000815260040161095e93929190611dc6565b60405180910390fd5b61097684848484036000610e57565b5b50505050565b600073ffffffffffffffffffffffffffffffffffffffff168373ffffffffffffffffffffffffffffffffffffffff16036109ef5760006040517f96c6fd1e0000000000000000000000000000000000000000000000000000000081526004016109e69190611b58565b60405180910390fd5b600073ffffffffffffffffffffffffffffffffffffffff168273ffffffffffffffffffffffffffffffffffffffff1603610a615760006040517fec442f05000000000000000000000000000000000000000000000000000000008152600401610a589190611b58565b60405180910390fd5b610a6c83838361102e565b505050565b60007f000000000000000000000000000000000000000000000000000000000000000073ffffffffffffffffffffffffffffffffffffffff163073ffffffffffffffffffffffffffffffffffffffff16148015610aed57507f000000000000000000000000000000000000000000000000000000000000000046145b15610b1a577f00000000000000000000000000000000000000000000000000000000000000009050610b25565b610b22611253565b90505b90565b610b306108ce565b73ffffffffffffffffffffffffffffffffffffffff16610b4e61059a565b73ffffffffffffffffffffffffffffffffffffffff1614610bad57610b716108ce565b6040517f118cdaa7000000000000000000000000000000000000000000000000000000008152600401610ba49190611b58565b60405180910390fd5b565b600073ffffffffffffffffffffffffffffffffffffffff168273ffffffffffffffffffffffffffffffffffffffff1603610c215760006040517fec442f05000000000000000000000000000000000000000000000000000000008152600401610c189190611b58565b60405180910390fd5b610c2d6000838361102e565b5050565b6000600560009054906101000a900473ffffffffffffffffffffffffffffffffffffffff16905081600560006101000a81548173ffffffffffffffffffffffffffffffffffffffff021916908373ffffffffffffffffffffffffffffffffffffffff1602179055508173ffffffffffffffffffffffffffffffffffffffff168173ffffffffffffffffffffffffffffffffffffffff167f8be0079c531659141344cd1fd0a4f28419497f9722a3daafe3b4186f6b6457e060405160405180910390a35050565b6000600860008373ffffffffffffffffffffffffffffffffffffffff1673ffffffffffffffffffffffffffffffffffffffff168152602001908152602001600020549050919050565b6060610d7660067f00000000000000000000000000000000000000000000000000000000000000006112e990919063ffffffff16565b905090565b6060610db160077f00000000000000000000000000000000000000000000000000000000000000006112e990919063ffffffff16565b905090565b6000600860008373ffffffffffffffffffffffffffffffffffffffff1673ffffffffffffffffffffffffffffffffffffffff1681526020019081526020016000206000815480929190600101919050559050919050565b6000610e20610e1a610a71565b83611399565b9050919050565b600080600080610e39888888886113da565b925092509250610e4982826114ce565b829350505050949350505050565b600073ffffffffffffffffffffffffffffffffffffffff168473ffffffffffffffffffffffffffffffffffffffff1603610ec95760006040517fe602df05000000000000000000000000000000000000000000000000000000008152600401610ec09190611b58565b60405180910390fd5b600073ffffffffffffffffffffffffffffffffffffffff168373ffffffffffffffffffffffffffffffffffffffff1603610f3b5760006040517f94280d62000000000000000000000000000000000000000000000000000000008152600401610f329190611b58565b60405180910390fd5b81600160008673ffffffffffffffffffffffffffffffffffffffff1673ffffffffffffffffffffffffffffffffffffffff16815260200190815260200160002060008573ffffffffffffffffffffffffffffffffffffffff1673ffffffffffffffffffffffffffffffffffffffff168152602001908152602001600020819055508015611028578273ffffffffffffffffffffffffffffffffffffffff168473ffffffffffffffffffffffffffffffffffffffff167f8c5be1e5ebec7d5bd14f71427d1e84f3dd0314c0f7b2291e5b200ac8c7c3b9258460405161101f91906118c6565b60405180910390a35b50505050565b600073ffffffffffffffffffffffffffffffffffffffff168373ffffffffffffffffffffffffffffffffffffffff16036110805780600260008282546110749190611e2c565b92505081905550611153565b60008060008573ffffffffffffffffffffffffffffffffffffffff1673ffffffffffffffffffffffffffffffffffffffff1681526020019081526020016000205490508181101561110c578381836040517fe450d38c00000000000000000000000000000000000000000000000000000000815260040161110393929190611dc6565b60405180910390fd5b8181036000808673ffffffffffffffffffffffffffffffffffffffff1673ffffffffffffffffffffffffffffffffffffffff16815260200190815260200160002081905550505b600073ffffffffffffffffffffffffffffffffffffffff168273ffffffffffffffffffffffffffffffffffffffff160361119c57806002600082825403925050819055506111e9565b806000808473ffffffffffffffffffffffffffffffffffffffff1673ffffffffffffffffffffffffffffffffffffffff168152602001908152602001600020600082825401925050819055505b8173ffffffffffffffffffffffffffffffffffffffff168373ffffffffffffffffffffffffffffffffffffffff167fddf252ad1be2c89b69c2b068fc378daa952ba7f163c4a11628f55a4df523b3ef8360405161124691906118c6565b60405180910390a3505050565b60007f8b73c3c69bb8fe3d512ecc4cf759cc79239f7b179b0ffacaa9a75d522b39400f7f00000000000000000000000000000000000000000000000000000000000000007f000000000000000000000000000000000000000000000000000000000000000046306040516020016112ce959493929190611e60565b60405160208183030381529060405280519060200120905090565b606060ff60001b8314611306576112ff83611632565b9050611393565b81805461131290611cdc565b80601f016020809104026020016040519081016040528092919081815260200182805461133e90611cdc565b801561138b5780601f106113605761010080835404028352916020019161138b565b820191906000526020600020905b81548152906001019060200180831161136e57829003601f168201915b505050505090505b92915050565b60006040517f190100000000000000000000000000000000000000000000000000000000000081528360028201528260228201526042812091505092915050565b60008060007f7fffffffffffffffffffffffffffffff5d576e7357a4501ddfe92f46681b20a08460001c111561141a5760006003859250925092506114c4565b60006001888888886040516000815260200160405260405161143f9493929190611eb3565b6020604051602081039080840390855afa158015611461573d6000803e3d6000fd5b505050602060405103519050600073ffffffffffffffffffffffffffffffffffffffff168173ffffffffffffffffffffffffffffffffffffffff16036114b557600060016000801b935093509350506114c4565b8060008060001b935093509350505b9450945094915050565b600060038111156114e2576114e1611ef8565b5b8260038111156114f5576114f4611ef8565b5b031561162e576001600381111561150f5761150e611ef8565b5b82600381111561152257611521611ef8565b5b03611559576040517ff645eedf00000000000000000000000000000000000000000000000000000000815260040160405180910390fd5b6002600381111561156d5761156c611ef8565b5b8260038111156115805761157f611ef8565b5b036115c5578060001c6040517ffce698f70000000000000000000000000000000000000000000000000000000081526004016115bc91906118c6565b60405180910390fd5b6003808111156115d8576115d7611ef8565b5b8260038111156115eb576115ea611ef8565b5b0361162d57806040517fd78bce0c0000000000000000000000000000000000000000000000000000000081526004016116249190611984565b60405180910390fd5b5b5050565b6060600061163f836116a6565b90506000602067ffffffffffffffff81111561165e5761165d611d0d565b5b6040519080825280601f01601f1916602001820160405280156116905781602001600182028036833780820191505090505b5090508181528360208201528092505050919050565b60008060ff8360001c169050601f8111156116ed576040517fb3512b0c00000000000000000000000000000000000000000000000000000000815260040160405180910390fd5b80915050919050565b600081519050919050565b600082825260208201905092915050565b60005b83811015611730578082015181840152602081019050611715565b60008484015250505050565b6000601f19601f8301169050919050565b6000611758826116f6565b6117628185611701565b9350611772818560208601611712565b61177b8161173c565b840191505092915050565b600060208201905081810360008301526117a0818461174d565b905092915050565b600080fd5b600073ffffffffffffffffffffffffffffffffffffffff82169050919050565b60006117d8826117ad565b9050919050565b6117e8816117cd565b81146117f357600080fd5b50565b600081359050611805816117df565b92915050565b6000819050919050565b61181e8161180b565b811461182957600080fd5b50565b60008135905061183b81611815565b92915050565b60008060408385031215611858576118576117a8565b5b6000611866858286016117f6565b92505060206118778582860161182c565b9150509250929050565b60008115159050919050565b61189681611881565b82525050565b60006020820190506118b1600083018461188d565b92915050565b6118c08161180b565b82525050565b60006020820190506118db60008301846118b7565b92915050565b6000806000606084860312156118fa576118f96117a8565b5b6000611908868287016117f6565b9350506020611919868287016117f6565b925050604061192a8682870161182c565b9150509250925092565b600060ff82169050919050565b61194a81611934565b82525050565b60006020820190506119656000830184611941565b92915050565b6000819050919050565b61197e8161196b565b82525050565b60006020820190506119996000830184611975565b92915050565b6000602082840312156119b5576119b46117a8565b5b60006119c3848285016117f6565b91505092915050565b60007fff0000000000000000000000000000000000000000000000000000000000000082169050919050565b611a01816119cc565b82525050565b611a10816117cd565b82525050565b600081519050919050565b600082825260208201905092915050565b6000819050602082019050919050565b611a4b8161180b565b82525050565b6000611a5d8383611a42565b60208301905092915050565b6000602082019050919050565b6000611a8182611a16565b611a8b8185611a21565b9350611a9683611a32565b8060005b83811015611ac7578151611aae8882611a51565b9750611ab983611a69565b925050600181019050611a9a565b5085935050505092915050565b600060e082019050611ae9600083018a6119f8565b8181036020830152611afb818961174d565b90508181036040830152611b0f818861174d565b9050611b1e60608301876118b7565b611b2b6080830186611a07565b611b3860a0830185611975565b81810360c0830152611b4a8184611a76565b905098975050505050505050565b6000602082019050611b6d6000830184611a07565b92915050565b611b7c81611934565b8114611b8757600080fd5b50565b600081359050611b9981611b73565b92915050565b611ba88161196b565b8114611bb357600080fd5b50565b600081359050611bc581611b9f565b92915050565b600080600080600080600060e0888a031215611bea57611be96117a8565b5b6000611bf88a828b016117f6565b9750506020611c098a828b016117f6565b9650506040611c1a8a828b0161182c565b9550506060611c2b8a828b0161182c565b9450506080611c3c8a828b01611b8a565b93505060a0611c4d8a828b01611bb6565b92505060c0611c5e8a828b01611bb6565b91505092959891949750929550565b60008060408385031215611c8457611c836117a8565b5b6000611c92858286016117f6565b9250506020611ca3858286016117f6565b9150509250929050565b7f4e487b7100000000000000000000000000000000000000000000000000000000600052602260045260246000fd5b60006002820490506001821680611cf457607f821691505b602082108103611d0757611d06611cad565b5b50919050565b7f4e487b7100000000000000000000000000000000000000000000000000000000600052604160045260246000fd5b600060c082019050611d516000830189611975565b611d5e6020830188611a07565b611d6b6040830187611a07565b611d7860608301866118b7565b611d8560808301856118b7565b611d9260a08301846118b7565b979650505050505050565b6000604082019050611db26000830185611a07565b611dbf6020830184611a07565b9392505050565b6000606082019050611ddb6000830186611a07565b611de860208301856118b7565b611df560408301846118b7565b949350505050565b7f4e487b7100000000000000000000000000000000000000000000000000000000600052601160045260246000fd5b6000611e378261180b565b9150611e428361180b565b9250828201905080821115611e5a57611e59611dfd565b5b92915050565b600060a082019050611e756000830188611975565b611e826020830187611975565b611e8f6040830186611975565b611e9c60608301856118b7565b611ea96080830184611a07565b9695505050505050565b6000608082019050611ec86000830187611975565b611ed56020830186611941565b611ee26040830185611975565b611eef6060830184611975565b95945050505050565b7f4e487b7100000000000000000000000000000000000000000000000000000000600052602160045260246000fdfea2646970667358221220c7626d24a44a34367ed933d21bf68c2ce47005ee8bca0ebddfb8943c925dd19164736f6c63430008170033",
  "linkReferences": {},
  "deployedLinkReferences": {}
}