{
  "_format": "hh-sol-artifact-1",
  "contractName": "USDT",
  "sourceName": "contracts/tokens/usdtToken.sol",
  "abi": [
    {
      "inputs": [
        {
          "internalType": "address",
          "name": "recipient",
          "type": "address"
        },
        {
          "internalType": "address",
          "name": "initialOwner",
          "type": "address"
        }
      ],
      "stateMutability": "nonpayable",
      "type": "constructor"
    },
    {
      "inputs": [],
      "name": "ECDSAInvalidSignature",
      "type": "error"
    },
    {
      "inputs": [
        {
          "internalType": "uint256",
          "name": "length",
          "type": "uint256"
        }
      ],
      "name": "ECDSAInvalidSignatureLength",
      "type": "error"
    },
    {
      "inputs": [
        {
          "internalType": "bytes32",
          "name": "s",
          "type": "bytes32"
        }
      ],
      "name": "ECDSAInvalidSignatureS",
      "type": "error"
    },
    {
      "inputs": [
        {
          "internalType": "address",
          "name": "spender",
          "type": "address"
        },
        {
          "internalType": "uint256",
          "name": "allowance",
          "type": "uint256"
        },
        {
          "internalType": "uint256",
          "name": "needed",
          "type": "uint256"
        }
      ],
      "name": "ERC20InsufficientAllowance",
      "type": "error"
    },
    {
      "inputs": [
        {
          "internalType": "address",
          "name": "sender",
          "type": "address"
        },
        {
          "internalType": "uint256",
          "name": "balance",
          "type": "uint256"
        },
        {
          "internalType": "uint256",
          "name": "needed",
          "type": "uint256"
        }
      ],
      "name": "ERC20InsufficientBalance",
      "type": "error"
    },
    {
      "inputs": [
        {
          "internalType": "address",
          "name": "approver",
          "type": "address"
        }
      ],
      "name": "ERC20InvalidApprover",
      "type": "error"
    },
    {
      "inputs": [
        {
          "internalType": "address",
          "name": "receiver",
          "type": "address"
        }
      ],
      "name": "ERC20InvalidReceiver",
      "type": "error"
    },
    {
      "inputs": [
        {
          "internalType": "address",
          "name": "sender",
          "type": "address"
        }
      ],
      "name": "ERC20InvalidSender",
      "type": "error"
    },
    {
      "inputs": [
        {
          "internalType": "address",
          "name": "spender",
          "type": "address"
        }
      ],
      "name": "ERC20InvalidSpender",
      "type": "error"
    },
    {
      "inputs": [
        {
          "internalType": "uint256",
          "name": "deadline",
          "type": "uint256"
        }
      ],
      "name": "ERC2612ExpiredSignature",
      "type": "error"
    },
    {
      "inputs": [
        {
          "internalType": "address",
          "name": "signer",
          "type": "address"
        },
        {
          "internalType": "address",
          "name": "owner",
          "type": "address"
        }
      ],
      "name": "ERC2612InvalidSigner",
      "type": "error"
    },
    {
      "inputs": [
        {
          "internalType": "address",
          "name": "account",
          "type": "address"
        },
        {
          "internalType": "uint256",
          "name": "currentNonce",
          "type": "uint256"
        }
      ],
      "name": "InvalidAccountNonce",
      "type": "error"
    },
    {
      "inputs": [],
      "name": "InvalidShortString",
      "type": "error"
    },
    {
      "inputs": [
        {
          "internalType": "address",
          "name": "owner",
          "type": "address"
        }
      ],
      "name": "OwnableInvalidOwner",
      "type": "error"
    },
    {
      "inputs": [
        {
          "internalType": "address",
          "name": "account",
          "type": "address"
        }
      ],
      "name": "OwnableUnauthorizedAccount",
      "type": "error"
    },
    {
      "inputs": [
        {
          "internalType": "string",
          "name": "str",
          "type": "string"
        }
      ],
      "name": "StringTooLong",
      "type": "error"
    },
    {
      "anonymous": false,
      "inputs": [
        {
          "indexed": true,
          "internalType": "address",
          "name": "owner",
          "type": "address"
        },
        {
          "indexed": true,
          "internalType": "address",
          "name": "spender",
          "type": "address"
        },
        {
          "indexed": false,
          "internalType": "uint256",
          "name": "value",
          "type": "uint256"
        }
      ],
      "name": "Approval",
      "type": "event"
    },
    {
      "anonymous": false,
      "inputs": [],
      "name": "EIP712DomainChanged",
      "type": "event"
    },
    {
      "anonymous": false,
      "inputs": [
        {
          "indexed": true,
          "internalType": "address",
          "name": "previousOwner",
          "type": "address"
        },
        {
          "indexed": true,
          "internalType": "address",
          "name": "newOwner",
          "type": "address"
        }
      ],
      "name": "OwnershipTransferred",
      "type": "event"
    },
    {
      "anonymous": false,
      "inputs": [
        {
          "indexed": true,
          "internalType": "address",
          "name": "from",
          "type": "address"
        },
        {
          "indexed": true,
          "internalType": "address",
          "name": "to",
          "type": "address"
        },
        {
          "indexed": false,
          "internalType": "uint256",
          "name": "value",
          "type": "uint256"
        }
      ],
      "name": "Transfer",
      "type": "event"
    },
    {
      "inputs": [],
      "name": "DOMAIN_SEPARATOR",
      "outputs": [
        {
          "internalType": "bytes32",
          "name": "",
          "type": "bytes32"
        }
      ],
      "stateMutability": "view",
      "type": "function"
    },
    {
      "inputs": [
        {
          "internalType": "address",
          "name": "owner",
          "type": "address"
        },
        {
          "internalType": "address",
          "name": "spender",
          "type": "address"
        }
      ],
      "name": "allowance",
      "outputs": [
        {
          "internalType": "uint256",
          "name": "",
          "type": "uint256"
        }
      ],
      "stateMutability": "view",
      "type": "function"
    },
    {
      "inputs": [
        {
          "internalType": "address",
          "name": "spender",
          "type": "address"
        },
        {
          "internalType": "uint256",
          "name": "value",
          "type": "uint256"
        }
      ],
      "name": "approve",
      "outputs": [
        {
          "internalType": "bool",
          "name": "",
          "type": "bool"
        }
      ],
      "stateMutability": "nonpayable",
      "type": "function"
    },
    {
      "inputs": [
        {
          "internalType": "address",
          "name": "account",
          "type": "address"
        }
      ],
      "name": "balanceOf",
      "outputs": [
        {
          "internalType": "uint256",
          "name": "",
          "type": "uint256"
        }
      ],
      "stateMutability": "view",
      "type": "function"
    },
    {
      "inputs": [
        {
          "internalType": "uint256",
          "name": "value",
          "type": "uint256"
        }
      ],
      "name": "burn",
      "outputs": [],
      "stateMutability": "nonpayable",
      "type": "function"
    },
    {
      "inputs": [
        {
          "internalType": "address",
          "name": "account",
          "type": "address"
        },
        {
          "internalType": "uint256",
          "name": "value",
          "type": "uint256"
        }
      ],
      "name": "burnFrom",
      "outputs": [],
      "stateMutability": "nonpayable",
      "type": "function"
    },
    {
      "inputs": [],
      "name": "decimals",
      "outputs": [
        {
          "internalType": "uint8",
          "name": "",
          "type": "uint8"
        }
      ],
      "stateMutability": "view",
      "type": "function"
    },
    {
      "inputs": [],
      "name": "eip712Domain",
      "outputs": [
        {
          "internalType": "bytes1",
          "name": "fields",
          "type": "bytes1"
        },
        {
          "internalType": "string",
          "name": "name",
          "type": "string"
        },
        {
          "internalType": "string",
          "name": "version",
          "type": "string"
        },
        {
          "internalType": "uint256",
          "name": "chainId",
          "type": "uint256"
        },
        {
          "internalType": "address",
          "name": "verifyingContract",
          "type": "address"
        },
        {
          "internalType": "bytes32",
          "name": "salt",
          "type": "bytes32"
        },
        {
          "internalType": "uint256[]",
          "name": "extensions",
          "type": "uint256[]"
        }
      ],
      "stateMutability": "view",
      "type": "function"
    },
    {
      "inputs": [
        {
          "internalType": "address",
          "name": "to",
          "type": "address"
        },
        {
          "internalType": "uint256",
          "name": "amount",
          "type": "uint256"
        }
      ],
      "name": "mint",
      "outputs": [],
      "stateMutability": "nonpayable",
      "type": "function"
    },
    {
      "inputs": [],
      "name": "name",
      "outputs": [
        {
          "internalType": "string",
          "name": "",
          "type": "string"
        }
      ],
      "stateMutability": "view",
      "type": "function"
    },
    {
      "inputs": [
        {
          "internalType": "address",
          "name": "owner",
          "type": "address"
        }
      ],
      "name": "nonces",
      "outputs": [
        {
          "internalType": "uint256",
          "name": "",
          "type": "uint256"
        }
      ],
      "stateMutability": "view",
      "type": "function"
    },
    {
      "inputs": [],
      "name": "owner",
      "outputs": [
        {
          "internalType": "address",
          "name": "",
          "type": "address"
        }
      ],
      "stateMutability": "view",
      "type": "function"
    },
    {
      "inputs": [
        {
          "internalType": "address",
          "name": "owner",
          "type": "address"
        },
        {
          "internalType": "address",
          "name": "spender",
          "type": "address"
        },
        {
          "internalType": "uint256",
          "name": "value",
          "type": "uint256"
        },
        {
          "internalType": "uint256",
          "name": "deadline",
          "type": "uint256"
        },
        {
          "internalType": "uint8",
          "name": "v",
          "type": "uint8"
        },
        {
          "internalType": "bytes32",
          "name": "r",
          "type": "bytes32"
        },
        {
          "internalType": "bytes32",
          "name": "s",
          "type": "bytes32"
        }
      ],
      "name": "permit",
      "outputs": [],
      "stateMutability": "nonpayable",
      "type": "function"
    },
    {
      "inputs": [],
      "name": "renounceOwnership",
      "outputs": [],
      "stateMutability": "nonpayable",
      "type": "function"
    },
    {
      "inputs": [],
      "name": "symbol",
      "outputs": [
        {
          "internalType": "string",
          "name": "",
          "type": "string"
        }
      ],
      "stateMutability": "view",
      "type": "function"
    },
    {
      "inputs": [],
      "name": "totalSupply",
      "outputs": [
        {
          "internalType": "uint256",
          "name": "",
          "type": "uint256"
        }
      ],
      "stateMutability": "view",
      "type": "function"
    },
    {
      "inputs": [
        {
          "internalType": "address",
          "name": "to",
          "type": "address"
        },
        {
          "internalType": "uint256",
          "name": "value",
          "type": "uint256"
        }
      ],
      "name": "transfer",
      "outputs": [
        {
          "internalType": "bool",
          "name": "",
          "type": "bool"
        }
      ],
      "stateMutability": "nonpayable",
      "type": "function"
    },
    {
      "inputs": [
        {
          "internalType": "address",
          "name": "from",
          "type": "address"
        },
        {
          "internalType": "address",
          "name": "to",
          "type": "address"
        },
        {
          "internalType": "uint256",
          "name": "value",
          "type": "uint256"
        }
      ],
      "name": "transferFrom",
      "outputs": [
        {
          "internalType": "bool",
          "name": "",
          "type": "bool"
        }
      ],
      "stateMutability": "nonpayable",
      "type": "function"
    },
    {
      "inputs": [
        {
          "internalType": "address",
          "name": "newOwner",
          "type": "address"
        }
      ],
      "name": "transferOwnership",
      "outputs": [],
      "stateMutability": "nonpayable",
      "type": "function"
    }
  ],
  "bytecode": "0x6101606040523480156200001257600080fd5b5060405162003137380380620031378339818101604052810190620000389190620007d9565b6040518060400160405280600481526020017f5553445400000000000000000000000000000000000000000000000000000000815250806040518060400160405280600181526020017f3100000000000000000000000000000000000000000000000000000000000000815250836040518060400160405280600481526020017f55534454000000000000000000000000000000000000000000000000000000008152506040518060400160405280600481526020017f5553445400000000000000000000000000000000000000000000000000000000815250816003908162000123919062000a9a565b50806004908162000135919062000a9a565b505050600073ffffffffffffffffffffffffffffffffffffffff168173ffffffffffffffffffffffffffffffffffffffff1603620001ad5760006040517f1e4fbdf7000000000000000000000000000000000000000000000000000000008152600401620001a4919062000b92565b60405180910390fd5b620001be81620002b760201b60201c565b50620001d56006836200037d60201b90919060201c565b6101208181525050620001f36007826200037d60201b90919060201c565b6101408181525050818051906020012060e08181525050808051906020012061010081815250504660a0818152505062000232620003d560201b60201c565b608081815250503073ffffffffffffffffffffffffffffffffffffffff1660c08173ffffffffffffffffffffffffffffffffffffffff1681525050505050620002af82620002856200043260201b60201c565b600a62000293919062000d3f565b620f4240620002a3919062000d90565b6200043b60201b60201c565b50506200104e565b6000600560009054906101000a900473ffffffffffffffffffffffffffffffffffffffff16905081600560006101000a81548173ffffffffffffffffffffffffffffffffffffffff021916908373ffffffffffffffffffffffffffffffffffffffff1602179055508173ffffffffffffffffffffffffffffffffffffffff168173ffffffffffffffffffffffffffffffffffffffff167f8be0079c531659141344cd1fd0a4f28419497f9722a3daafe3b4186f6b6457e060405160405180910390a35050565b6000602083511015620003a3576200039b83620004c860201b60201c565b9050620003cf565b82620003b5836200053560201b60201c565b6000019081620003c6919062000a9a565b5060ff60001b90505b92915050565b60007f8b73c3c69bb8fe3d512ecc4cf759cc79239f7b179b0ffacaa9a75d522b39400f60e0516101005146306040516020016200041795949392919062000e07565b60405160208183030381529060405280519060200120905090565b60006012905090565b600073ffffffffffffffffffffffffffffffffffffffff168273ffffffffffffffffffffffffffffffffffffffff1603620004b05760006040517fec442f05000000000000000000000000000000000000000000000000000000008152600401620004a7919062000b92565b60405180910390fd5b620004c4600083836200053f60201b60201c565b5050565b600080829050601f815111156200051857826040517f305a27a90000000000000000000000000000000000000000000000000000000081526004016200050f919062000ef3565b60405180910390fd5b805181620005269062000f49565b60001c1760001b915050919050565b6000819050919050565b600073ffffffffffffffffffffffffffffffffffffffff168373ffffffffffffffffffffffffffffffffffffffff16036200059557806002600082825462000588919062000fb9565b925050819055506200066b565b60008060008573ffffffffffffffffffffffffffffffffffffffff1673ffffffffffffffffffffffffffffffffffffffff1681526020019081526020016000205490508181101562000624578381836040517fe450d38c0000000000000000000000000000000000000000000000000000000081526004016200061b9392919062000ff4565b60405180910390fd5b8181036000808673ffffffffffffffffffffffffffffffffffffffff1673ffffffffffffffffffffffffffffffffffffffff16815260200190815260200160002081905550505b600073ffffffffffffffffffffffffffffffffffffffff168273ffffffffffffffffffffffffffffffffffffffff1603620006b6578060026000828254039250508190555062000703565b806000808473ffffffffffffffffffffffffffffffffffffffff1673ffffffffffffffffffffffffffffffffffffffff168152602001908152602001600020600082825401925050819055505b8173ffffffffffffffffffffffffffffffffffffffff168373ffffffffffffffffffffffffffffffffffffffff167fddf252ad1be2c89b69c2b068fc378daa952ba7f163c4a11628f55a4df523b3ef8360405162000762919062001031565b60405180910390a3505050565b600080fd5b600073ffffffffffffffffffffffffffffffffffffffff82169050919050565b6000620007a18262000774565b9050919050565b620007b38162000794565b8114620007bf57600080fd5b50565b600081519050620007d381620007a8565b92915050565b60008060408385031215620007f357620007f26200076f565b5b60006200080385828601620007c2565b92505060206200081685828601620007c2565b9150509250929050565b600081519050919050565b7f4e487b7100000000000000000000000000000000000000000000000000000000600052604160045260246000fd5b7f4e487b7100000000000000000000000000000000000000000000000000000000600052602260045260246000fd5b60006002820490506001821680620008a257607f821691505b602082108103620008b857620008b76200085a565b5b50919050565b60008190508160005260206000209050919050565b60006020601f8301049050919050565b600082821b905092915050565b600060088302620009227fffffffffffffffffffffffffffffffffffffffffffffffffffffffffffffffff82620008e3565b6200092e8683620008e3565b95508019841693508086168417925050509392505050565b6000819050919050565b6000819050919050565b60006200097b620009756200096f8462000946565b62000950565b62000946565b9050919050565b6000819050919050565b62000997836200095a565b620009af620009a68262000982565b848454620008f0565b825550505050565b600090565b620009c6620009b7565b620009d38184846200098c565b505050565b5b81811015620009fb57620009ef600082620009bc565b600181019050620009d9565b5050565b601f82111562000a4a5762000a1481620008be565b62000a1f84620008d3565b8101602085101562000a2f578190505b62000a4762000a3e85620008d3565b830182620009d8565b50505b505050565b600082821c905092915050565b600062000a6f6000198460080262000a4f565b1980831691505092915050565b600062000a8a838362000a5c565b9150826002028217905092915050565b62000aa58262000820565b67ffffffffffffffff81111562000ac15762000ac06200082b565b5b62000acd825462000889565b62000ada828285620009ff565b600060209050601f83116001811462000b12576000841562000afd578287015190505b62000b09858262000a7c565b86555062000b79565b601f19841662000b2286620008be565b60005b8281101562000b4c5784890151825560018201915060208501945060208101905062000b25565b8683101562000b6c578489015162000b68601f89168262000a5c565b8355505b6001600288020188555050505b505050505050565b62000b8c8162000794565b82525050565b600060208201905062000ba9600083018462000b81565b92915050565b7f4e487b7100000000000000000000000000000000000000000000000000000000600052601160045260246000fd5b60008160011c9050919050565b6000808291508390505b600185111562000c3d5780860481111562000c155762000c1462000baf565b5b600185161562000c255780820291505b808102905062000c358562000bde565b945062000bf5565b94509492505050565b60008262000c58576001905062000d2b565b8162000c68576000905062000d2b565b816001811462000c81576002811462000c8c5762000cc2565b600191505062000d2b565b60ff84111562000ca15762000ca062000baf565b5b8360020a91508482111562000cbb5762000cba62000baf565b5b5062000d2b565b5060208310610133831016604e8410600b841016171562000cfc5782820a90508381111562000cf65762000cf562000baf565b5b62000d2b565b62000d0b848484600162000beb565b9250905081840481111562000d255762000d2462000baf565b5b81810290505b9392505050565b600060ff82169050919050565b600062000d4c8262000946565b915062000d598362000d32565b925062000d887fffffffffffffffffffffffffffffffffffffffffffffffffffffffffffffffff848462000c46565b905092915050565b600062000d9d8262000946565b915062000daa8362000946565b925082820262000dba8162000946565b9150828204841483151762000dd45762000dd362000baf565b5b5092915050565b6000819050919050565b62000df08162000ddb565b82525050565b62000e018162000946565b82525050565b600060a08201905062000e1e600083018862000de5565b62000e2d602083018762000de5565b62000e3c604083018662000de5565b62000e4b606083018562000df6565b62000e5a608083018462000b81565b9695505050505050565b600082825260208201905092915050565b60005b8381101562000e9557808201518184015260208101905062000e78565b60008484015250505050565b6000601f19601f8301169050919050565b600062000ebf8262000820565b62000ecb818562000e64565b935062000edd81856020860162000e75565b62000ee88162000ea1565b840191505092915050565b6000602082019050818103600083015262000f0f818462000eb2565b905092915050565b600081519050919050565b6000819050602082019050919050565b600062000f40825162000ddb565b80915050919050565b600062000f568262000f17565b8262000f628462000f22565b905062000f6f8162000f32565b9250602082101562000fb25762000fad7fffffffffffffffffffffffffffffffffffffffffffffffffffffffffffffffff83602003600802620008e3565b831692505b5050919050565b600062000fc68262000946565b915062000fd38362000946565b925082820190508082111562000fee5762000fed62000baf565b5b92915050565b60006060820190506200100b600083018662000b81565b6200101a602083018562000df6565b62001029604083018462000df6565b949350505050565b600060208201905062001048600083018462000df6565b92915050565b60805160a05160c05160e05161010051610120516101405161208e620010a96000396000610e8801526000610e4d0152600061139d0152600061137c01526000610af701526000610b4d01526000610b76015261208e6000f3fe608060405234801561001057600080fd5b50600436106101215760003560e01c8063715018a6116100ad57806395d89b411161007157806395d89b41146102fe578063a9059cbb1461031c578063d505accf1461034c578063dd62ed3e14610368578063f2fde38b1461039857610121565b8063715018a61461026657806379cc6790146102705780637ecebe001461028c57806384b0196e146102bc5780638da5cb5b146102e057610121565b8063313ce567116100f4578063313ce567146101c25780633644e515146101e057806340c10f19146101fe57806342966c681461021a57806370a082311461023657610121565b806306fdde0314610126578063095ea7b31461014457806318160ddd1461017457806323b872dd14610192575b600080fd5b61012e6103b4565b60405161013b919061188a565b60405180910390f35b61015e60048036038101906101599190611945565b610446565b60405161016b91906119a0565b60405180910390f35b61017c610469565b60405161018991906119ca565b60405180910390f35b6101ac60048036038101906101a791906119e5565b610473565b6040516101b991906119a0565b60405180910390f35b6101ca6104a2565b6040516101d79190611a54565b60405180910390f35b6101e86104ab565b6040516101f59190611a88565b60405180910390f35b61021860048036038101906102139190611945565b6104ba565b005b610234600480360381019061022f9190611aa3565b6104d0565b005b610250600480360381019061024b9190611ad0565b6104e4565b60405161025d91906119ca565b60405180910390f35b61026e61052c565b005b61028a60048036038101906102859190611945565b610540565b005b6102a660048036038101906102a19190611ad0565b610560565b6040516102b391906119ca565b60405180910390f35b6102c4610572565b6040516102d79796959493929190611c05565b60405180910390f35b6102e861061c565b6040516102f59190611c89565b60405180910390f35b610306610646565b604051610313919061188a565b60405180910390f35b61033660048036038101906103319190611945565b6106d8565b60405161034391906119a0565b60405180910390f35b61036660048036038101906103619190611cfc565b6106fb565b005b610382600480360381019061037d9190611d9e565b610843565b60405161038f91906119ca565b60405180910390f35b6103b260048036038101906103ad9190611ad0565b6108ca565b005b6060600380546103c390611e0d565b80601f01602080910402602001604051908101604052809291908181526020018280546103ef90611e0d565b801561043c5780601f106104115761010080835404028352916020019161043c565b820191906000526020600020905b81548152906001019060200180831161041f57829003601f168201915b5050505050905090565b600080610451610950565b905061045e818585610958565b600191505092915050565b6000600254905090565b60008061047e610950565b905061048b85828561096a565b6104968585856109ff565b60019150509392505050565b60006012905090565b60006104b5610af3565b905090565b6104c2610baa565b6104cc8282610c31565b5050565b6104e16104db610950565b82610cb3565b50565b60008060008373ffffffffffffffffffffffffffffffffffffffff1673ffffffffffffffffffffffffffffffffffffffff168152602001908152602001600020549050919050565b610534610baa565b61053e6000610d35565b565b6105528261054c610950565b8361096a565b61055c8282610cb3565b5050565b600061056b82610dfb565b9050919050565b600060608060008060006060610586610e44565b61058e610e7f565b46306000801b600067ffffffffffffffff8111156105af576105ae611e3e565b5b6040519080825280602002602001820160405280156105dd5781602001602082028036833780820191505090505b507f0f00000000000000000000000000000000000000000000000000000000000000959493929190965096509650965096509650965090919293949596565b6000600560009054906101000a900473ffffffffffffffffffffffffffffffffffffffff16905090565b60606004805461065590611e0d565b80601f016020809104026020016040519081016040528092919081815260200182805461068190611e0d565b80156106ce5780601f106106a3576101008083540402835291602001916106ce565b820191906000526020600020905b8154815290600101906020018083116106b157829003601f168201915b5050505050905090565b6000806106e3610950565b90506106f08185856109ff565b600191505092915050565b8342111561074057836040517f6279130200000000000000000000000000000000000000000000000000000000815260040161073791906119ca565b60405180910390fd5b60007f6e71edae12b1b97f4d1f60370fef10105fa2faae0126114a169c64845d6126c988888861076f8c610eba565b8960405160200161078596959493929190611e6d565b60405160208183030381529060405280519060200120905060006107a882610f11565b905060006107b882878787610f2b565b90508973ffffffffffffffffffffffffffffffffffffffff168173ffffffffffffffffffffffffffffffffffffffff161461082c57808a6040517f4b800e46000000000000000000000000000000000000000000000000000000008152600401610823929190611ece565b60405180910390fd5b6108378a8a8a610958565b50505050505050505050565b6000600160008473ffffffffffffffffffffffffffffffffffffffff1673ffffffffffffffffffffffffffffffffffffffff16815260200190815260200160002060008373ffffffffffffffffffffffffffffffffffffffff1673ffffffffffffffffffffffffffffffffffffffff16815260200190815260200160002054905092915050565b6108d2610baa565b600073ffffffffffffffffffffffffffffffffffffffff168173ffffffffffffffffffffffffffffffffffffffff16036109445760006040517f1e4fbdf700000000000000000000000000000000000000000000000000000000815260040161093b9190611c89565b60405180910390fd5b61094d81610d35565b50565b600033905090565b6109658383836001610f5b565b505050565b60006109768484610843565b90507fffffffffffffffffffffffffffffffffffffffffffffffffffffffffffffffff8110156109f957818110156109e9578281836040517ffb8f41b20000000000000000000000000000000000000000000000000000000081526004016109e093929190611ef7565b60405180910390fd5b6109f884848484036000610f5b565b5b50505050565b600073ffffffffffffffffffffffffffffffffffffffff168373ffffffffffffffffffffffffffffffffffffffff1603610a715760006040517f96c6fd1e000000000000000000000000000000000000000000000000000000008152600401610a689190611c89565b60405180910390fd5b600073ffffffffffffffffffffffffffffffffffffffff168273ffffffffffffffffffffffffffffffffffffffff1603610ae35760006040517fec442f05000000000000000000000000000000000000000000000000000000008152600401610ada9190611c89565b60405180910390fd5b610aee838383611132565b505050565b60007f000000000000000000000000000000000000000000000000000000000000000073ffffffffffffffffffffffffffffffffffffffff163073ffffffffffffffffffffffffffffffffffffffff16148015610b6f57507f000000000000000000000000000000000000000000000000000000000000000046145b15610b9c577f00000000000000000000000000000000000000000000000000000000000000009050610ba7565b610ba4611357565b90505b90565b610bb2610950565b73ffffffffffffffffffffffffffffffffffffffff16610bd061061c565b73ffffffffffffffffffffffffffffffffffffffff1614610c2f57610bf3610950565b6040517f118cdaa7000000000000000000000000000000000000000000000000000000008152600401610c269190611c89565b60405180910390fd5b565b600073ffffffffffffffffffffffffffffffffffffffff168273ffffffffffffffffffffffffffffffffffffffff1603610ca35760006040517fec442f05000000000000000000000000000000000000000000000000000000008152600401610c9a9190611c89565b60405180910390fd5b610caf60008383611132565b5050565b600073ffffffffffffffffffffffffffffffffffffffff168273ffffffffffffffffffffffffffffffffffffffff1603610d255760006040517f96c6fd1e000000000000000000000000000000000000000000000000000000008152600401610d1c9190611c89565b60405180910390fd5b610d3182600083611132565b5050565b6000600560009054906101000a900473ffffffffffffffffffffffffffffffffffffffff16905081600560006101000a81548173ffffffffffffffffffffffffffffffffffffffff021916908373ffffffffffffffffffffffffffffffffffffffff1602179055508173ffffffffffffffffffffffffffffffffffffffff168173ffffffffffffffffffffffffffffffffffffffff167f8be0079c531659141344cd1fd0a4f28419497f9722a3daafe3b4186f6b6457e060405160405180910390a35050565b6000600860008373ffffffffffffffffffffffffffffffffffffffff1673ffffffffffffffffffffffffffffffffffffffff168152602001908152602001600020549050919050565b6060610e7a60067f00000000000000000000000000000000000000000000000000000000000000006113ed90919063ffffffff16565b905090565b6060610eb560077f00000000000000000000000000000000000000000000000000000000000000006113ed90919063ffffffff16565b905090565b6000600860008373ffffffffffffffffffffffffffffffffffffffff1673ffffffffffffffffffffffffffffffffffffffff1681526020019081526020016000206000815480929190600101919050559050919050565b6000610f24610f1e610af3565b8361149d565b9050919050565b600080600080610f3d888888886114de565b925092509250610f4d82826115d2565b829350505050949350505050565b600073ffffffffffffffffffffffffffffffffffffffff168473ffffffffffffffffffffffffffffffffffffffff1603610fcd5760006040517fe602df05000000000000000000000000000000000000000000000000000000008152600401610fc49190611c89565b60405180910390fd5b600073ffffffffffffffffffffffffffffffffffffffff168373ffffffffffffffffffffffffffffffffffffffff160361103f5760006040517f94280d620000000000000000000000000000000000000000000000000000000081526004016110369190611c89565b60405180910390fd5b81600160008673ffffffffffffffffffffffffffffffffffffffff1673ffffffffffffffffffffffffffffffffffffffff16815260200190815260200160002060008573ffffffffffffffffffffffffffffffffffffffff1673ffffffffffffffffffffffffffffffffffffffff16815260200190815260200160002081905550801561112c578273ffffffffffffffffffffffffffffffffffffffff168473ffffffffffffffffffffffffffffffffffffffff167f8c5be1e5ebec7d5bd14f71427d1e84f3dd0314c0f7b2291e5b200ac8c7c3b9258460405161112391906119ca565b60405180910390a35b50505050565b600073ffffffffffffffffffffffffffffffffffffffff168373ffffffffffffffffffffffffffffffffffffffff16036111845780600260008282546111789190611f5d565b92505081905550611257565b60008060008573ffffffffffffffffffffffffffffffffffffffff1673ffffffffffffffffffffffffffffffffffffffff16815260200190815260200160002054905081811015611210578381836040517fe450d38c00000000000000000000000000000000000000000000000000000000815260040161120793929190611ef7565b60405180910390fd5b8181036000808673ffffffffffffffffffffffffffffffffffffffff1673ffffffffffffffffffffffffffffffffffffffff16815260200190815260200160002081905550505b600073ffffffffffffffffffffffffffffffffffffffff168273ffffffffffffffffffffffffffffffffffffffff16036112a057806002600082825403925050819055506112ed565b806000808473ffffffffffffffffffffffffffffffffffffffff1673ffffffffffffffffffffffffffffffffffffffff168152602001908152602001600020600082825401925050819055505b8173ffffffffffffffffffffffffffffffffffffffff168373ffffffffffffffffffffffffffffffffffffffff167fddf252ad1be2c89b69c2b068fc378daa952ba7f163c4a11628f55a4df523b3ef8360405161134a91906119ca565b60405180910390a3505050565b60007f8b73c3c69bb8fe3d512ecc4cf759cc79239f7b179b0ffacaa9a75d522b39400f7f00000000000000000000000000000000000000000000000000000000000000007f000000000000000000000000000000000000000000000000000000000000000046306040516020016113d2959493929190611f91565b60405160208183030381529060405280519060200120905090565b606060ff60001b831461140a5761140383611736565b9050611497565b81805461141690611e0d565b80601f016020809104026020016040519081016040528092919081815260200182805461144290611e0d565b801561148f5780601f106114645761010080835404028352916020019161148f565b820191906000526020600020905b81548152906001019060200180831161147257829003601f168201915b505050505090505b92915050565b60006040517f190100000000000000000000000000000000000000000000000000000000000081528360028201528260228201526042812091505092915050565b60008060007f7fffffffffffffffffffffffffffffff5d576e7357a4501ddfe92f46681b20a08460001c111561151e5760006003859250925092506115c8565b6000600188888888604051600081526020016040526040516115439493929190611fe4565b6020604051602081039080840390855afa158015611565573d6000803e3d6000fd5b505050602060405103519050600073ffffffffffffffffffffffffffffffffffffffff168173ffffffffffffffffffffffffffffffffffffffff16036115b957600060016000801b935093509350506115c8565b8060008060001b935093509350505b9450945094915050565b600060038111156115e6576115e5612029565b5b8260038111156115f9576115f8612029565b5b0315611732576001600381111561161357611612612029565b5b82600381111561162657611625612029565b5b0361165d576040517ff645eedf00000000000000000000000000000000000000000000000000000000815260040160405180910390fd5b6002600381111561167157611670612029565b5b82600381111561168457611683612029565b5b036116c9578060001c6040517ffce698f70000000000000000000000000000000000000000000000000000000081526004016116c091906119ca565b60405180910390fd5b6003808111156116dc576116db612029565b5b8260038111156116ef576116ee612029565b5b0361173157806040517fd78bce0c0000000000000000000000000000000000000000000000000000000081526004016117289190611a88565b60405180910390fd5b5b5050565b60606000611743836117aa565b90506000602067ffffffffffffffff81111561176257611761611e3e565b5b6040519080825280601f01601f1916602001820160405280156117945781602001600182028036833780820191505090505b5090508181528360208201528092505050919050565b60008060ff8360001c169050601f8111156117f1576040517fb3512b0c00000000000000000000000000000000000000000000000000000000815260040160405180910390fd5b80915050919050565b600081519050919050565b600082825260208201905092915050565b60005b83811015611834578082015181840152602081019050611819565b60008484015250505050565b6000601f19601f8301169050919050565b600061185c826117fa565b6118668185611805565b9350611876818560208601611816565b61187f81611840565b840191505092915050565b600060208201905081810360008301526118a48184611851565b905092915050565b600080fd5b600073ffffffffffffffffffffffffffffffffffffffff82169050919050565b60006118dc826118b1565b9050919050565b6118ec816118d1565b81146118f757600080fd5b50565b600081359050611909816118e3565b92915050565b6000819050919050565b6119228161190f565b811461192d57600080fd5b50565b60008135905061193f81611919565b92915050565b6000806040838503121561195c5761195b6118ac565b5b600061196a858286016118fa565b925050602061197b85828601611930565b9150509250929050565b60008115159050919050565b61199a81611985565b82525050565b60006020820190506119b56000830184611991565b92915050565b6119c48161190f565b82525050565b60006020820190506119df60008301846119bb565b92915050565b6000806000606084860312156119fe576119fd6118ac565b5b6000611a0c868287016118fa565b9350506020611a1d868287016118fa565b9250506040611a2e86828701611930565b9150509250925092565b600060ff82169050919050565b611a4e81611a38565b82525050565b6000602082019050611a696000830184611a45565b92915050565b6000819050919050565b611a8281611a6f565b82525050565b6000602082019050611a9d6000830184611a79565b92915050565b600060208284031215611ab957611ab86118ac565b5b6000611ac784828501611930565b91505092915050565b600060208284031215611ae657611ae56118ac565b5b6000611af4848285016118fa565b91505092915050565b60007fff0000000000000000000000000000000000000000000000000000000000000082169050919050565b611b3281611afd565b82525050565b611b41816118d1565b82525050565b600081519050919050565b600082825260208201905092915050565b6000819050602082019050919050565b611b7c8161190f565b82525050565b6000611b8e8383611b73565b60208301905092915050565b6000602082019050919050565b6000611bb282611b47565b611bbc8185611b52565b9350611bc783611b63565b8060005b83811015611bf8578151611bdf8882611b82565b9750611bea83611b9a565b925050600181019050611bcb565b5085935050505092915050565b600060e082019050611c1a600083018a611b29565b8181036020830152611c2c8189611851565b90508181036040830152611c408188611851565b9050611c4f60608301876119bb565b611c5c6080830186611b38565b611c6960a0830185611a79565b81810360c0830152611c7b8184611ba7565b905098975050505050505050565b6000602082019050611c9e6000830184611b38565b92915050565b611cad81611a38565b8114611cb857600080fd5b50565b600081359050611cca81611ca4565b92915050565b611cd981611a6f565b8114611ce457600080fd5b50565b600081359050611cf681611cd0565b92915050565b600080600080600080600060e0888a031215611d1b57611d1a6118ac565b5b6000611d298a828b016118fa565b9750506020611d3a8a828b016118fa565b9650506040611d4b8a828b01611930565b9550506060611d5c8a828b01611930565b9450506080611d6d8a828b01611cbb565b93505060a0611d7e8a828b01611ce7565b92505060c0611d8f8a828b01611ce7565b91505092959891949750929550565b60008060408385031215611db557611db46118ac565b5b6000611dc3858286016118fa565b9250506020611dd4858286016118fa565b9150509250929050565b7f4e487b7100000000000000000000000000000000000000000000000000000000600052602260045260246000fd5b60006002820490506001821680611e2557607f821691505b602082108103611e3857611e37611dde565b5b50919050565b7f4e487b7100000000000000000000000000000000000000000000000000000000600052604160045260246000fd5b600060c082019050611e826000830189611a79565b611e8f6020830188611b38565b611e9c6040830187611b38565b611ea960608301866119bb565b611eb660808301856119bb565b611ec360a08301846119bb565b979650505050505050565b6000604082019050611ee36000830185611b38565b611ef06020830184611b38565b9392505050565b6000606082019050611f0c6000830186611b38565b611f1960208301856119bb565b611f2660408301846119bb565b949350505050565b7f4e487b7100000000000000000000000000000000000000000000000000000000600052601160045260246000fd5b6000611f688261190f565b9150611f738361190f565b9250828201905080821115611f8b57611f8a611f2e565b5b92915050565b600060a082019050611fa66000830188611a79565b611fb36020830187611a79565b611fc06040830186611a79565b611fcd60608301856119bb565b611fda6080830184611b38565b9695505050505050565b6000608082019050611ff96000830187611a79565b6120066020830186611a45565b6120136040830185611a79565b6120206060830184611a79565b95945050505050565b7f4e487b7100000000000000000000000000000000000000000000000000000000600052602160045260246000fdfea2646970667358221220b9f1d32abcd6e407ceb0621e13d413c5204ea274349c039ba55c8e6636a4a13e64736f6c63430008170033",
  "linkReferences": {},
  "deployedLinkReferences": {}
}