{
  "_format": "hh-sol-artifact-1",
  "contractName": "BorrowingModule",
  "sourceName": "contracts/BorrowingModule.sol",
  "abi": [
    {
      "inputs": [
        {
          "internalType": "address",
          "name": "_lendingPool",
          "type": "address"
        },
        {
          "internalType": "address",
          "name": "_veltToken",
          "type": "address"
        },
        {
          "internalType": "address",
          "name": "_usdtToken",
          "type": "address"
        }
      ],
      "stateMutability": "nonpayable",
      "type": "constructor"
    },
    {
      "anonymous": false,
      "inputs": [
        {
          "indexed": true,
          "internalType": "address",
          "name": "user",
          "type": "address"
        },
        {
          "indexed": false,
          "internalType": "uint256",
          "name": "amount",
          "type": "uint256"
        },
        {
          "indexed": false,
          "internalType": "uint256",
          "name": "timestamp",
          "type": "uint256"
        }
      ],
      "name": "Borrow",
      "type": "event"
    },
    {
      "inputs": [
        {
          "internalType": "uint256",
          "name": "_amount",
          "type": "uint256"
        }
      ],
      "name": "borrow",
      "outputs": [],
      "stateMutability": "nonpayable",
      "type": "function"
    },
    {
      "inputs": [
        {
          "internalType": "address",
          "name": "",
          "type": "address"
        }
      ],
      "name": "borrowedAmount",
      "outputs": [
        {
          "internalType": "uint256",
          "name": "",
          "type": "uint256"
        }
      ],
      "stateMutability": "view",
      "type": "function"
    },
    {
      "inputs": [
        {
          "internalType": "uint256",
          "name": "amount",
          "type": "uint256"
        }
      ],
      "name": "depositUSDT",
      "outputs": [],
      "stateMutability": "nonpayable",
      "type": "function"
    },
    {
      "inputs": [],
      "name": "lendingPool",
      "outputs": [
        {
          "internalType": "contract ILendingPool",
          "name": "",
          "type": "address"
        }
      ],
      "stateMutability": "view",
      "type": "function"
    },
    {
      "inputs": [],
      "name": "usdtToken",
      "outputs": [
        {
          "internalType": "contract IERC20",
          "name": "",
          "type": "address"
        }
      ],
      "stateMutability": "view",
      "type": "function"
    },
    {
      "inputs": [],
      "name": "veltToken",
      "outputs": [
        {
          "internalType": "contract IERC20",
          "name": "",
          "type": "address"
        }
      ],
      "stateMutability": "view",
      "type": "function"
    }
  ],
  "bytecode": "0x608060405234801561001057600080fd5b50604051610b32380380610b328339818101604052810190610032919061015f565b826000806101000a81548173ffffffffffffffffffffffffffffffffffffffff021916908373ffffffffffffffffffffffffffffffffffffffff16021790555081600160006101000a81548173ffffffffffffffffffffffffffffffffffffffff021916908373ffffffffffffffffffffffffffffffffffffffff16021790555080600260006101000a81548173ffffffffffffffffffffffffffffffffffffffff021916908373ffffffffffffffffffffffffffffffffffffffff1602179055505050506101b2565b600080fd5b600073ffffffffffffffffffffffffffffffffffffffff82169050919050565b600061012c82610101565b9050919050565b61013c81610121565b811461014757600080fd5b50565b60008151905061015981610133565b92915050565b600080600060608486031215610178576101776100fc565b5b60006101868682870161014a565b93505060206101978682870161014a565b92505060406101a88682870161014a565b9150509250925092565b610971806101c16000396000f3fe608060405234801561001057600080fd5b50600436106100625760003560e01c8063948adb8f14610067578063a59a997314610097578063a98ad46c146100b5578063c5ebeaec146100d3578063da04b0a0146100ef578063e7c80f171461010d575b600080fd5b610081600480360381019061007c9190610525565b610129565b60405161008e919061056b565b60405180910390f35b61009f610141565b6040516100ac91906105e5565b60405180910390f35b6100bd610165565b6040516100ca9190610621565b60405180910390f35b6100ed60048036038101906100e89190610668565b61018b565b005b6100f76103f6565b6040516101049190610621565b60405180910390f35b61012760048036038101906101229190610668565b61041c565b005b60036020528060005260406000206000915090505481565b60008054906101000a900473ffffffffffffffffffffffffffffffffffffffff1681565b600260009054906101000a900473ffffffffffffffffffffffffffffffffffffffff1681565b600081116101ce576040517f08c379a00000000000000000000000000000000000000000000000000000000081526004016101c5906106f2565b60405180910390fd5b80600160009054906101000a900473ffffffffffffffffffffffffffffffffffffffff1673ffffffffffffffffffffffffffffffffffffffff166370a08231336040518263ffffffff1660e01b815260040161022a9190610721565b602060405180830381865afa158015610247573d6000803e3d6000fd5b505050506040513d601f19601f8201168201806040525081019061026b9190610751565b10156102ac576040517f08c379a00000000000000000000000000000000000000000000000000000000081526004016102a3906107ca565b60405180910390fd5b80600360003373ffffffffffffffffffffffffffffffffffffffff1673ffffffffffffffffffffffffffffffffffffffff16815260200190815260200160002060008282546102fb9190610819565b92505081905550600260009054906101000a900473ffffffffffffffffffffffffffffffffffffffff1673ffffffffffffffffffffffffffffffffffffffff1663a9059cbb33836040518363ffffffff1660e01b815260040161035f92919061084d565b6020604051808303816000875af115801561037e573d6000803e3d6000fd5b505050506040513d601f19601f820116820180604052508101906103a291906108ae565b503373ffffffffffffffffffffffffffffffffffffffff167fe1979fe4c35e0cef342fef5668e2c8e7a7e9f5d5d1ca8fee0ac6c427fa4153af82426040516103eb9291906108db565b60405180910390a250565b600160009054906101000a900473ffffffffffffffffffffffffffffffffffffffff1681565b600260009054906101000a900473ffffffffffffffffffffffffffffffffffffffff1673ffffffffffffffffffffffffffffffffffffffff166323b872dd3330846040518463ffffffff1660e01b815260040161047b93929190610904565b6020604051808303816000875af115801561049a573d6000803e3d6000fd5b505050506040513d601f19601f820116820180604052508101906104be91906108ae565b5050565b600080fd5b600073ffffffffffffffffffffffffffffffffffffffff82169050919050565b60006104f2826104c7565b9050919050565b610502816104e7565b811461050d57600080fd5b50565b60008135905061051f816104f9565b92915050565b60006020828403121561053b5761053a6104c2565b5b600061054984828501610510565b91505092915050565b6000819050919050565b61056581610552565b82525050565b6000602082019050610580600083018461055c565b92915050565b6000819050919050565b60006105ab6105a66105a1846104c7565b610586565b6104c7565b9050919050565b60006105bd82610590565b9050919050565b60006105cf826105b2565b9050919050565b6105df816105c4565b82525050565b60006020820190506105fa60008301846105d6565b92915050565b600061060b826105b2565b9050919050565b61061b81610600565b82525050565b60006020820190506106366000830184610612565b92915050565b61064581610552565b811461065057600080fd5b50565b6000813590506106628161063c565b92915050565b60006020828403121561067e5761067d6104c2565b5b600061068c84828501610653565b91505092915050565b600082825260208201905092915050565b7f416d6f756e74206d7573742062652067726561746572207468616e2030000000600082015250565b60006106dc601d83610695565b91506106e7826106a6565b602082019050919050565b6000602082019050818103600083015261070b816106cf565b9050919050565b61071b816104e7565b82525050565b60006020820190506107366000830184610712565b92915050565b60008151905061074b8161063c565b92915050565b600060208284031215610767576107666104c2565b5b60006107758482850161073c565b91505092915050565b7f4e6f7420656e6f7567682056454c5420636f6c6c61746572616c000000000000600082015250565b60006107b4601a83610695565b91506107bf8261077e565b602082019050919050565b600060208201905081810360008301526107e3816107a7565b9050919050565b7f4e487b7100000000000000000000000000000000000000000000000000000000600052601160045260246000fd5b600061082482610552565b915061082f83610552565b9250828201905080821115610847576108466107ea565b5b92915050565b60006040820190506108626000830185610712565b61086f602083018461055c565b9392505050565b60008115159050919050565b61088b81610876565b811461089657600080fd5b50565b6000815190506108a881610882565b92915050565b6000602082840312156108c4576108c36104c2565b5b60006108d284828501610899565b91505092915050565b60006040820190506108f0600083018561055c565b6108fd602083018461055c565b9392505050565b60006060820190506109196000830186610712565b6109266020830185610712565b610933604083018461055c565b94935050505056fea26469706673582212209e73828224b7bb338d28dce31ae05c5fd78686ffecd826be2d1184b2ac9cbb0364736f6c63430008170033",
  "linkReferences": {},
  "deployedLinkReferences": {}
}